:040000000DEF00F010
:04000800E1EF36F0FE
:06001800FF004BEF36F083
:10380000000001020304050607085001476F7420F9
:1038100044697374616E63652052656164696E67A3
:103820003A2025662C2054696D6572205469636BBB
:10383000733A2025750A0D00504F535349424C45A9
:1038400020544D5230204F564552464C4F573A2047
:1038500000494E46004E414E00696E66006E616E34
:05386000006C66000091
:10386600000E0501876F000E866F62C598F563C569
:1038760099F564C59AF565C59BF59BBF47EF1CF0A6
:1038860045EF1CF05DEF1CF0000E876F010E866F92
:1038960098C504F599C505F59AC506F59BC507F5BE
:1038A600DFEC37F004C598F505C599F506C59AF518
:1038B60007C59BF5000E05019F6F000E9E6FE6C5BE
:1038C6008AF5E7C58BF586518711D8A46DEF1CF0F4
:1038D6006FEF1CF076EF1CF0EAA574EF1CF076EFA4
:1038E6001CF090EF1CF086518711D8A47DEF1CF0D8
:1038F6007FEF1CF085EF1CF0000E6D6F2B0E6C6FCA
:1039060089EF1CF0000E6D6F2D0E6C6F6CC508F6FE
:103916009E4B9F2B8A07D8A08B0798C504F599C59F
:1039260005F59AC506F59BC507F5E6EC30F00404E7
:103936000510D8A4A1EF1CF0A3EF1CF0FAEF1CF0C1
:10394600BF0E0501676FFF0E686F6651696F6A6B80
:103956006751692768516A236A510AE11A0E695D3F
:10396600D8A0B8EF1CF0BBEF1CF0010EBCEF1CF0AA
:10397600000E6E6F6F6B6E516F11D8B4C5EF1CF0F1
:10398600C7EF1CF0D5EF1CF0080E9E25046E060E40
:103996009F21056E510E066E380E076E7EEC36F0D0
:1039A600E1EF1CF0080E9E25046E060E9F21056EA3
:1039B600590E066E380E076E7EEC36F00501FD0ECA
:1039C6008A27FF0E8B2360C516F561C517F5080E0D
:1039D600186E060E196E8AC51AF58BC51BF527ECEF
:1039E60033F016C560F517C561F587EF22F098C567
:1039F60004F599C505F59AC506F59BC507F5E6ECE8
:103A060030F004500510D8A40BEF1DF00DEF1DF09B
:103A160064EF1DF0BF0E0501676FFF0E686F6651FC
:103A2600696F6A6B6751692768516A236A510AE1AF
:103A36001A0E695DD8A022EF1DF025EF1DF0010ECC
:103A460026EF1DF0000E706F716B70517111D8B4B6
:103A56002FEF1DF031EF1DF03FEF1DF0080E9E25F4
:103A6600046E060E9F21056E550E066E380E076E05
:103A76007EEC36F04BEF1DF0080E9E25046E060E0A
:103A86009F21056E5D0E066E380E076E7EEC36F0D3
:103A96000501FD0E8A27FF0E8B2360C516F561C54D
:103AA60017F5080E186E060E196E8AC51AF58BC51F
:103AB6001BF527EC33F016C560F517C561F587EFE2
:103AC60022F0000E0501A06F000EA16F800EA26FFE
:103AD6003F0EA36F000E9D6F000E9C6F98C504F5F8
:103AE60099C505F59AC506F59BC507F5000E086E3E
:103AF600000E096E000E0A6E000E0B6E9CEC34F082
:103B0600D8B088EF1DF08AEF1DF00DEF1EF0A9EF7B
:103B16001DF0A0C512F5A1C513F5A2C514F5A3C5E0
:103B260015F5000E166E000E176E200E186E410E5D
:103B3600196E61EC27F012C5A0F513C5A1F514C5E1
:103B4600A2F515C5A3F505019C4B9D2B98C52BF534
:103B560099C52CF59AC52DF59BC52EF5000E166E4A
:103B6600000E176E200E186E410E196EA0C512F5C6
:103B7600A1C513F5A2C514F5A3C515F561EC27F08B
:103B860012C52FF513C530F514C531F515C532F537
:103B960064EC30F0D8B0D2EF1DF0D4EF1DF08CEF0E
:103BA6001DF0F4EF1DF0A0C52BF5A1C52CF5A2C59F
:103BB6002DF5A3C52EF5000E2F6E000E306E200ECD
:103BC600316E410E326E88EC29F02BC5A0F52CC55E
:103BD600A1F52DC5A2F52EC5A3F505019C07D8A014
:103BE6009D0798C52BF599C52CF59AC52DF59BC54E
:103BF6002EF5A0C52FF5A1C530F5A2C531F5A3C593
:103C060032F564EC30F0D8A00BEF1EF00DEF1EF08D
:103C1600D6EF1DF066C50AF50B6AB1EC36F00A5010
:103C260005018D6F8DC58CF5670E8D19D8A41EEF15
:103C36001EF020EF1EF046EF1EF0E851E911D8A461
:103C460027EF1EF029EF1EF02DEF1EF0000EE96F94
:103C5600010EE86FE9BF3AEF1EF0E95106E1E8050B
:103C6600D8B038EF1EF03AEF1EF040EF1EF0000E0F
:103C7600896F060E886F4FEF1EF0E8C588F5E9C517
:103C860089F54FEF1EF0E9BF4BEF1EF04DEF1EF02A
:103C96003AEF1EF040EF1EF0670E8D19D8A456EFCE
:103CA6001EF058EF1EF087EF1EF09DAF66EF1EF078
:103CB600FC0E9C5DFF0E9D59D8A064EF1EF066EFCA
:103CC6001EF085EF1EF0FF0E676FFF0E686F88C54A
:103CD60069F589C56AF56751692768516A239C5158
:103CE600695D6A51800A6B6F9D51800A6B59D8A035
:103CF6007FEF1EF081EF1EF085EF1EF0660E8C6FD3
:103D060087EF1EF0650E8C6F88C57EF589C57FF539
:103D1600670E8D19D8A492EF1EF094EF1EF0A4EF53
:103D26001EF0660E8C19D8A49BEF1EF09DEF1EF0B8
:103D3600A6EF1EF09DBFA4EF1EF0A2EF1EF0A6EFA9
:103D46001EF07E4B7F2B660E8C19D8A4ADEF1EF0AD
:103D5600AFEF1EF0CFEF1EF09DBFB6EF1EF0B4EF33
:103D66001EF0C2EF1EF0000EA06F000EA16F800EB7
:103D7600A26F3F0EA36F000E9D6F000E9C6F670E25
:103D86008D19D8B4C9EF1EF0CBEF1EF0CFEF1EF0A1
:103D96009C517E279D517F23000E976F000E966FD4
:103DA60098C58EF599C58FF59AC590F59BC591F581
:103DB600A0C580F5A1C581F5A2C582F5A3C583F589
:103DC60060EF1FF08EC52BF58FC52CF590C52DF530
:103DD60091C52EF5A0C52FF5A1C530F5A2C531F5C3
:103DE600A3C532F588EC29F02BC544F52CC545F55D
:103DF6002DC546F52EC547F5FCEC2CF044C592F5CD
:103E060045C593F546C594F547C595F592C504F5A0
:103E160093C505F594C506F595C507F5E1EC2FF0B4
:103E260004C584F505C585F58EC52BF58FC52CF51E
:103E360090C52DF591C52EF5A0C516F5A1C517F5AA
:103E4600A2C518F5A3C519F592C512F593C513F5C4
:103E560094C514F595C515F561EC27F012C52FF537
:103E660013C530F514C531F515C532F561EC37F0DB
:103E76002BC58EF52CC58FF52DC590F52EC591F564
:103E8600A0C52BF5A1C52CF5A2C52DF5A3C52EF50C
:103E9600000E2F6E000E306E200E316E410E326E09
:103EA60088EC29F02BC5A0F52CC5A1F52DC5A2F5EA
:103EB6002EC5A3F50501964B972B7E51965D97511E
:103EC600800A676F7F51800A6759D8A06DEF1FF08F
:103ED6006FEF1FF0E5EF1EF0A0C512F5A1C513F5B3
:103EE600A2C514F5A3C515F5000E166E000E176EC5
:103EF600A00E186E400E196E61EC27F012C592F5F1
:103F060013C593F514C594F515C595F58EC52BF512
:103F16008FC52CF590C52DF591C52EF592C52FF5BB
:103F260093C530F594C531F595C532F564EC30F09E
:103F3600D8B0A0EF1FF0A2EF1FF0ADEF1FF0000EFC
:103F46000501926F000E936F000E946F000E956F31
:103F5600D6EF1FF08EC504F58FC505F590C506F59D
:103F660091C507F592C508F593C509F594C50AF5F7
:103F760095C50BF59CEC34F0D8A0C4EF1FF0C6EF46
:103F86001FF0D6EF1FF0050184B1CCEF1FF0CEEF86
:103F96001FF0D6EF1FF0000E926F000E936F000E0B
:103FA600946F000E956F98C504F599C505F59AC5E9
:103FB60006F59BC507F592C508F593C509F594C5A1
:103FC6000AF595C50BF501EC25F004C58EF505C57A
:103FD6008FF506C590F507C591F58EC52BF58FC5EE
:103FE6002CF590C52DF591C52EF5000E166E000E1A
:103FF600176E200E186E410E196E80C512F581C51A
:1040060013F582C514F583C515F561EC27F012C5C5
:104016002FF513C530F514C531F515C532F564EC29
:1040260030F0D8A019EF20F01BEF20F044EF20F07D
:1040360005019C4B9D2B80C512F581C513F582C5E4
:1040460014F583C515F5000E166E000E176E200EBC
:10405600186E410E196E61EC27F012C580F513C576
:1040660081F514C582F515C583F5660E05018C1913
:10407600D8A440EF20F042EF20F044EF20F07E4B32
:104086007F2B80C5A0F581C5A1F582C5A2F583C5A4
:10409600A3F5650E05018C19D8B454EF20F056EF40
:1040A60020F05CEF20F09CC57CF59DC57DF560EFAA
:1040B60020F0000E7D6F000E7C6F000E7B6F000EF1
:1040C6007A6F000E796F000E786F000E976F000EF4
:1040D600966F5BEF21F08EC52BF58FC52CF590C53D
:1040E6002DF591C52EF5A0C52FF5A1C530F5A2C5B4
:1040F60031F5A3C532F588EC29F02BC544F52CC55E
:1041060045F52DC546F52EC547F5FCEC2CF044C506
:1041160092F545C593F546C594F547C595F592C5FF
:1041260004F593C505F594C506F595C507F5E1ECC7
:104136002FF004C584F505C585F50501EAB9A6EF96
:1041460020F0A8EF20F0C5EF20F084518511D8A407
:10415600AFEF20F0B1EF20F0C5EF20F0670E8D191C
:10416600D8A4B8EF20F0BAEF20F0C5EF20F07DBF5D
:10417600C1EF20F0BFEF20F0C5EF20F0784B792B90
:104186000FEF21F07A517B11D8A4CCEF20F0CEEFBF
:1041960020F0F8EF20F07DBFD5EF20F0D3EF20F030
:1041A600F8EF20F0080E9E25D96E060E9F21DA6ED6
:1041B6002E0EDF6E9E4B9F2B8A07D8A08B07000E14
:1041C6007B6F010E7A6FF8EF20F0080E9E25D96EF0
:1041D600060E9F21DA6E300EDF6E9E4B9F2B8A07EE
:1041E600D8A08B077807D8A0790778517911D8A479
:1041F600FFEF20F001EF21F0E8EF20F0080E9E25FA
:10420600D96E060E9F21DA6E8451300FDF6E9E4BFB
:104216009F2B8A07D8A08B078EC52BF58FC52CF54B
:1042260090C52DF591C52EF5A0C516F5A1C517F5B6
:10423600A2C518F5A3C519F592C512F593C513F5D0
:1042460094C514F595C515F561EC27F012C52FF543
:1042560013C530F514C531F515C532F561EC37F0E7
:104266002BC58EF52CC58FF52DC590F52EC591F570
:10427600A0C52BF5A1C52CF5A2C52DF5A3C52EF518
:10428600000E2F6E000E306E200E316E410E326E15
:1042960088EC29F02BC5A0F52CC5A1F52DC5A2F5F6
:1042A6002EC5A3F505017C07D8A07D07964B972B55
:1042B6007E51965D9751800A676F7F51800A6759D4
:1042C600D8B068EF21F06AEF21F078EF21F09FBFB8
:1042D60076EF21F09F5109E14B0E9E5DD8A076EF57
:1042E60021F078EF21F06EEF20F07A517B11D8A4FF
:1042F6007FEF21F081EF21F092EF21F0EAA986EF1E
:1043060021F088EF21F092EF21F0080E9E25D96E5C
:10431600060E9F21DA6E2E0EDF6E9E4B9F2B080E29
:104326009E25D96E060E9F21DA6E000EDF6E650E93
:104336008C19D8A4A1EF21F0A3EF21F075EF22F09C
:10434600000E976F4F0E966F080E9625D96E060EC5
:104356009721DA6E000EDF6E000E876F000E866FF5
:104366009DBFBAEF21F0B8EF21F0C2EF21F0000EA9
:10437600876F010E866F9C6D9D1FD8B09D2B000E1A
:10438600896F020E886FF3EF21F09607D8A0970782
:10439600080E9625D96E060E9721DA6E9CC504F591
:1043A6009DC505F5000E076E0A0E066E44EC34F048
:1043B6000450300FDF6E9CC504F59DC505F5000E53
:1043C600076E0A0E066E8AEC33F004C59CF505C529
:1043D6009DF505018807D8A089078A07D8A08B070D
:1043E6009C519D11D8A4FAEF21F0FCEF21F0C8EF03
:1043F60021F089BF09EF22F0895106E18805D8B07E
:1044060007EF22F009EF22F0C8EF21F09607D8A0B7
:10441600970786518711D8A413EF22F015EF22F0E3
:104426001BEF22F0000E736F2B0E726F1FEF22F040
:10443600000E736F2D0E726F080E9625D96E060E3E
:104446009721DA6E6100C8F5DFF48A07D8A08B07DA
:104456009607D8A09707BF0E676FFF0E686F665165
:10446600696F6A6B6751692768516A236A510AE165
:104476001A0E695DD8A042EF22F045EF22F0010E38
:1044860046EF22F0000E766F776B76517711D8A43F
:104496004FEF22F051EF22F057EF22F0000E756F2A
:1044A600650E746F5BEF22F0000E756F450E746F2C
:1044B600080E9625D96E060E9721DA6E6100D0F5A4
:1044C600DFF48A07D8A08B07080E9E25046E060E19
:1044D6009F21056E080E9625066E060E9721076E1D
:1044E6007EEC36F060C516F561C517F5080E186E38
:1044F600060E196E8AC51AF58BC51BF527EC33F027
:1045060016C560F517C561F51200610098F6D9F475
:1045160061009CF6DAF4DEC4F6F4DDC4F7F4000EAE
:10452600F86E0800F550250AD8A49CEF22F09EEFFD
:1045360022F0DFEF24F0610098F6D9F461009CF6D2
:10454600DAF4DE2A000EDD22000E0501E76F000E0A
:10455600E66FE6C5EAF5E7C5EBF5E869E9696100E6
:1045660098F6D9F461009CF6DAF4DEC4F6F4DDC4FC
:10457600F7F4000EF86E0800F5500A6E0B6AB1ECFF
:1045860036F00A500501BC6FBC51D8B4CDEF22F00D
:10459600CFEF22F019EF23F0610098F6D9F461000D
:1045A6009CF6DAF4610078F3AAF5610074F3ABF5D2
:1045B600010EAA27000EAB236100A8F6F6F46100EF
:1045C600ACF6F7F4000EF86E0800F5500A6E0B6AAA
:1045D600B1EC36F00A500501BD6FBD51D8B4F6EF07
:1045E60022F0F8EF22F019EF23F0610098F6D9F4E3
:1045F60061009CF6DAF4610078F3AAF5610074F3C1
:10460600ABF5020EAA27000EAB236100A8F6F6F45E
:104616006100ACF6F7F4000EF86E0800F5500A6E6D
:104626000B6AB1EC36F00A500501BE6F660EBC1976
:10463600D8A420EF23F022EF23F073EF23F06100DC
:1046460098F6D9F461009CF6DAF4DEC4F6F4DDC41B
:10465600F7F4000EF86E08006100D4F3BFF56100B0
:1046660098F6D9F461009CF6DAF4DE2A000EDD2213
:104676006100A0F6D9F46100A4F6DAF461007CF3D7
:10468600AAF5040EDE2661007CF3ABF5000EDD22F2
:104696006100A8F6D9F46100ACF6DAF4610078F3AB
:1046A600B8F5610078F3B9F5610078F3BAF5610001
:1046B60078F3BBF5A4C560F5A5C561F5B8C562F587
:1046C600B9C563F5BAC564F5BBC565F5BFC566F57D
:1046D60033EC1CF060C5A4F561C5A5F500EF25F027
:1046E600BC0E046E050E056E610E066E380E076E64
:1046F600000E096E020E086E65EC31F004500510CE
:10470600D8A488EF23F08AEF23F03DEF24F0610070
:1047160098F6D9F461009CF6DAF4610078F3AAF50C
:10472600610074F3ABF5010E0501AA27000EAB2359
:104736006100A8F6F6F46100ACF6F7F4000EF86E28
:1047460008006100D4F3BFF5BF0EAA6FFF0EAB6F72
:10475600610098F6D9F461009CF6DAF4DEC4F6F44A
:10476600DDC4F7F4000EF86E0800F550AC6FAD6BC3
:10477600AA51AC27AB51AD23AD510AE11A0EAC5D7F
:10478600D8A0C8EF23F0CBEF23F0010ECCEF23F037
:10479600000EB66FB76BB651B711D8B4D5EF23F08C
:1047A600D7EF23F0FBEF23F06100A0F6D9F4610008
:1047B600A4F6DAF461007CF3AAF5040EDE266100A5
:1047C6007CF3ABF5000EDD226100A8F6D9F461009A
:1047D600ACF6DAF4610078F3B8F5610078F3B9F570
:1047E600610078F3BAF5610078F3BBF51DEF24F0AC
:1047F6006100A0F6D9F46100A4F6DAF461007CF356
:10480600AAF5040EDE2661007CF3ABF5000EDD2270
:104816006100A8F6D9F46100ACF6DAF4610078F329
:10482600B8F5610078F3B9F5610078F3BAF561007F
:1048360078F3BBF5020E610098F6D9F461009CF698
:10484600DAF4DE26000EDD22A4C560F5A5C561F505
:10485600B8C562F5B9C563F5BAC564F5BBC565F5F6
:10486600BFC566F533EC1CF060C5A4F561C5A5F5BA
:1048760000EF25F0610098F6D9F461009CF6DAF4B1
:10488600DEC4F6F4DDC4F7F4000EF86E0800F55049
:10489600750AD8A451EF24F053EF24F09FEF24F0CB
:1048A600610098F6D9F461009CF6DAF4DE2A000E6F
:1048B600DD226100A0F6D9F46100A4F6DAF4610005
:1048C6007CF3AAF5020EDE2661007CF3ABF5000E42
:1048D600DD226100A8F6D9F46100ACF6DAF46100D5
:1048E60078F3ACF5610074F3ADF5ACC5AEF5ADC5C6
:1048F600AFF50501B06BB16BB26BB36BB46BB56B57
:10490600A4C521F5A5C522F5AEC523F5AFC524F589
:10491600B0C525F5B1C526F5B2C527F5B3C528F549
:10492600B4C529F5B5C52AF505EC2EF021C5A4F5C3
:1049360022C5A5F500EF25F0610098F6D9F46100CF
:104946009CF6DAF4DEC4F6F4DDC4F7F4000EF86E75
:104956000800F550250AD8A4B3EF24F0B5EF24F0EB
:10496600CFEF24F0610098F6D9F461009CF6DAF4F2
:10497600DE2A000EDD22000E076E250E066EA4C589
:1049860008F5A5C509F5F1EC34F0000E0501A56F93
:10499600010EA46F00EF25F0610098F6D9F46100CE
:1049A6009CF6DAF4DE2A000EDD22000E0501A56F64
:1049B600000EA46F00EF25F0610098F6D9F46100AF
:1049C6009CF6DAF4DEC4F6F4DDC4F7F4000EF86EF5
:1049D6000800F550066E076AA4C508F5A5C509F5D1
:1049E600F1EC34F0610098F6D9F461009CF6DAF443
:1049F600DE2A000EDD22C8EF24F012000750800BDD
:104A0600106E07500724126E06AE0CEF25F00EEF5F
:104A160025F00FEF25F012801250D8B415EF25F0CF
:104A260017EF25F02CEF25F01228D8A41DEF25F05E
:104A36001FEF25F027EF25F0000E046E000E056E21
:104A4600000E066E000E076E068E000E076E34EF21
:104A560025F0000E046E000E056E000E066E000EAA
:104A6600076E0B50800B116E10501118D8B43EEF24
:104A760025F040EF25F041EF25F0108C0B500B246C
:104A8600116E0AAE49EF25F04BEF25F04CEF25F0FD
:104A960011801150D8B452EF25F054EF25F069EF8C
:104AA60025F01128D8A45AEF25F05CEF25F064EF25
:104AB60025F0000E086E000E096E000E0A6E000E3E
:104AC6000B6E0A8E000E0B6E71EF25F0000E086E4F
:104AD600000E096E000E0A6E000E0B6E1250115C6F
:104AE600D8B078EF25F07AEF25F0A1EF25F010ACDD
:104AF6007FEF25F081EF25F083EF25F0800E101A69
:104B060012C513F511C512F513C511F504C513F534
:104B160008C504F513C508F505C513F509C505F55A
:104B260013C509F506C513F50AC506F513C50AF535
:104B360007C513F50BC507F513C50BF5000E136E68
:104B4600125011C50CF50D6A0C5E000E0D5A0DBE05
:104B5600B6EF25F00D5009E11A0E0C5CD8A0B6EFA1
:104B660025F0B8EF25F0EFEF25F0045005100610FC
:104B76000710D8A4C1EF25F0C4EF25F0010EC5EF4C
:104B860025F0000E136E000E046E000E056E000E6C
:104B9600066E000E076E11C512F5F8EF25F013A08C
:104BA600D7EF25F0D9EF25F0DFEF25F0D8901330B9
:104BB6000109136EE1EF25F0D890133204A0E6EF59
:104BC60025F0E8EF25F0E9EF25F0138E07340732DC
:104BD600063205320432122A1150125CD8A0F6EFC2
:104BE60025F0F8EF25F0D2EF25F010BCFDEF25F00B
:104BF600FFEF25F03FEF26F01250D8A405EF26F080
:104C060007EF26F011EF26F0000E046E000E056E7B
:104C1600000E066E000E076E60EF27F008500426A1
:104C2600095005220A5006220B50072207A01EEF44
:104C360026F020EF26F0CCEF26F013A025EF26F085
:104C460027EF26F02DEF26F0D89013300109136ECA
:104C56002FEF26F0D890133204A034EF26F036EF6B
:104C660026F037EF26F0138E073407320632053268
:104C76000432122ACCEF26F00850045C095005587D
:104C86000A5006580750800A0C6E0B50800A0C58C2
:104C9600D8B050EF26F052EF26F07DEF26F0045004
:104CA600085C0C6E055009580D6E06500A580E6EBB
:104CB60007500B580F6EFF0E0C24046EFF0E0D20CE
:104CC600056EFF0E0E20066EFF0E0F20076E800E7D
:104CD600101A136C1350D8A473EF26F075EF26F054
:104CE60085EF26F0010E0426000E05220622072275
:104CF60085EF26F00850045E0950055A0A50065AF8
:104D06000B50075A0450051006100710D8A48EEF52
:104D160026F090EF26F0C5EF26F01350D8A496EFB4
:104D260026F098EF26F0C5EF26F0000E046E000E72
:104D3600056E000E066E000E076E60EF27F0D89027
:104D4600043605360636073613AEACEF26F0AEEF60
:104D560026F0AFEF26F0048013A0B4EF26F0B6EFEE
:104D660026F0BAEF26F0D8801336BCEF26F0D8909E
:104D760013361250D8B4C2EF26F0C4EF26F0C5EFB2
:104D860026F0120606AECAEF26F0CCEF26F0A2EF0A
:104D960026F0000E116E13AED3EF26F0D5EF26F0F7
:104DA600EDEF26F013C50CF57F0E0C16D8B4DEEF2A
:104DB60026F0E0EF26F0E4EF26F0010E116EEDEF9F
:104DC60026F004A0E9EF26F0EBEF26F0EDEF26F053
:104DD600E0EF26F01150D8B4F3EF26F0F5EF26F009
:104DE60020EF27F0010E0426000E052206220722D8
:104DF60007A000EF27F002EF27F020EF27F004C509
:104E06000CF505C50DF506C50EF507C50FF50F34EE
:104E16000F320E320D320C320CC504F50DC505F5F8
:104E26000EC506F50FC507F51228D8B41DEF27F0F5
:104E36001FEF27F020EF27F0122A1228D8B426EF0A
:104E460027F028EF27F030EF27F01250D8A42EEFE6
:104E560027F030EF27F042EF27F0000E046E000E29
:104E6600056E000E066E000E076E1250D8A43EEFB9
:104E760027F040EF27F042EF27F0000E106E12A049
:104E860047EF27F049EF27F04CEF27F0068E4DEF5E
:104E960027F0069ED8901230076E10AE55EF27F019
:104EA60057EF27F058EF27F0078E04C504F505C520
:104EB60005F506C506F507C507F512001550800B62
:104EC6001E6E15501524246E14AE6CEF27F06EEF8F
:104ED60027F06FEF27F024802450D8B475EF27F021
:104EE60077EF27F08AEF27F02428D8A47DEF27F064
:104EF6007FEF27F087EF27F0000E126E000E136E7D
:104F0600000E146E000E156E148E92EF27F0000E32
:104F1600126E000E136E000E146E000E156E1950F2
:104F2600800B1E1A195019241F6E18AE9DEF27F01C
:104F36009FEF27F0A0EF27F01F801F50D8B4A6EFF1
:104F460027F0A8EF27F0BBEF27F01F28D8A4AEEF75
:104F560027F0B0EF27F0B8EF27F0000E166E000E20
:104F6600176E000E186E000E196E188EC3EF27F01E
:104F7600000E166E000E176E000E186E000E196EDD
:104F86001F50D8B4C9EF27F0CBEF27F0D3EF27F0A7
:104F96002450D8A4D1EF27F0D3EF27F0DDEF27F088
:104FA600000E126E000E136E000E146E000E156EBD
:104FB60087EF29F0185012026100CCF329F5610041
:104FC600D0F32AF52950206E216A226A236A2A50D4
:104FD600256E266A276A286A175013026100CCF3E9
:104FE60029F56100D0F32AF529502026000E21224A
:104FF600222223222A502526000E26222722282274
:10500600165014026100CCF329F56100D0F32AF59D
:1050160029502026000E2122222223222A5025262C
:10502600000E26222722282222C523F521C522F595
:1050360020C521F5206A165013026100CCF329F52C
:105046006100D0F32AF5295020262A502122000E8D
:105056002222000E2322175012026100CCF329F5FA
:105066006100D0F32AF5295020262A502122000E6D
:105076002222000E232222C523F521C522F520C5B2
:1050860021F5206A165012026100CCF329F5610061
:10509600D0F32AF5295020262A502122000E22225A
:1050A600000E2322185013026100CCF329F561008B
:1050B600D0F32AF5295025262A502622000E27222B
:1050C600000E2822175014026100CCF329F5610066
:1050D600D0F32AF5295025262A502622000E27220B
:1050E600000E2822185014026100CCF329F5610045
:1050F600D0F32AF529501A6E2A501B6E1C6A1D6AB7
:105106001CC51DF51BC51CF51AC51BF51A6A1A50D8
:1051160025261B5026221C5027221D50282220C53A
:105126001AF521C51BF522C51CF523C51DF5190E5B
:10513600A2EF28F0D8901D321C321B321A32E82E0C
:105146009DEF28F01A5025261B5026221C50272298
:105156001D50282222C523F521C522F520C521F59B
:10516600206A1F5024C51AF51B6A1A26000E1B2238
:10517600820E1A24296EFF0E1B202A6ED8EF28F005
:10518600D890253626362736283623AECDEF28F09A
:10519600CFEF28F0D0EF28F02580D89020362136A2
:1051A600223623362906D8A02A0627AEDDEF28F0B8
:1051B600DFEF28F0C3EF28F0000E1F6E23AEE6EFF8
:1051C60028F0E8EF28F00CEF29F0FF0E20141A6EF5
:1051D600FF0E21141B6EFF0E22141C6E7F0E23146D
:1051E6001D6E1A501B101C101D10D8B4FDEF28F0B0
:1051F600FFEF28F003EF29F0010E1F6E0CEF29F0E8
:1052060025A008EF29F00AEF29F00CEF29F0FFEFAF
:1052160028F01F50D8B412EF29F014EF29F038EF18
:1052260029F0010E2526000E26222722282228A054
:105236001FEF29F021EF29F038EF29F025C51AF5DF
:1052460026C51BF527C51CF528C51DF51D341D32C1
:105256001C321B321A321AC525F51BC526F51CC58C
:1052660027F51DC528F5294A2A2A2ABE43EF29F023
:105276002A5008E12928D8A043EF29F045EF29F064
:105286004FEF29F0000E256E000E266E800E276E5B
:105296007F0E286E7DEF29F02ABE5CEF29F02A509A
:1052A60006E12904D8B05AEF29F05CEF29F068EF3F
:1052B60029F0000E256E000E266E000E276E000EDB
:1052C600286E000E1E6E7DEF29F029C524F5FF0E0F
:1052D6002516FF0E26167F0E2716000E281624A06A
:1052E60077EF29F079EF29F07AEF29F0278ED89019
:1052F6002430286E1E50281225C512F526C513F532
:1053060027C514F528C515F512002E50800B3B6EE7
:105316002E502E24426E2DAE93EF29F095EF29F0F4
:1053260096EF29F042804250D8B49CEF29F09EEFC8
:1053360029F0B3EF29F04228D8A4A4EF29F0A6EF6C
:1053460029F0AEEF29F0000E2B6E000E2C6E000E2B
:105356002D6E000E2E6E2D8E000E2E6EBBEF29F0DA
:10536600000E2B6E000E2C6E000E2D6E000E2E6E95
:105376003250800B3B1A32503224436E31AEC6EFA8
:1053860029F0C8EF29F0C9EF29F043804350D8B47B
:10539600CFEF29F0D1EF29F0E6EF29F04328D8A482
:1053A600D7EF29F0D9EF29F0E1EF29F0000E2F6EA3
:1053B600000E306E000E316E000E326E318E000E13
:1053C600326EEEEF29F0000E2F6E000E306E000EDC
:1053D600316E000E326E2F50301031103210D8A4BC
:1053E600F7EF29F0F9EF29F011EF2AF0000E2B6EF6
:1053F600000E2C6E000E2D6E000E2E6E800E2D12DF
:105406007F0E2E123B502E122BC52BF52CC52CF5DC
:105416002DC52DF52EC52EF554EF2BF04250D8A4F0
:1054260017EF2AF019EF2AF023EF2AF0000E2B6E61
:10543600000E2C6E000E2D6E000E2E6E54EF2BF00D
:10544600435042C533F5346A335E000E345A7F0E3C
:1054560033243C6E000E34203D6E2BC537F52CC52B
:1054660038F52DC539F52EC53AF5000E2B6E000E12
:105476002C6E000E2D6E000E2E6E000E3E6E000E71
:105486003F6E000E406E000E416E000E436E84EFBE
:105496002AF04350D8B452EF2AF054EF2AF06BEFBB
:1054A6002AF0D8903736383639363A36D8902B36F1
:1054B6002C362D362E3641AE63EF2AF065EF2AF0F4
:1054C60066EF2AF02B80D8903E363F36403641367E
:1054D6002F50375C305038583150395832503A587E
:1054E600D8A078EF2AF07AEF2AF083EF2AF0418CE1
:1054F6002F50375E3050385A3150395A32503A5A56
:10550600432A190E43648AEF2AF08CEF2AF04CEFF7
:105516002AF03750381039103A10D8B495EF2AF0DF
:1055260097EF2AF0AFEF2AF03E80AFEF2AF0D8903F
:105536002B362C362D362E3641AEA4EF2AF0A6EFAA
:105546002AF0A7EF2AF02B80D8903E363F36403619
:1055560041363C06D8A03D062DAEB4EF2AF0B6EF94
:105566002AF09AEF2AF0000E436E41AEBDEF2AF004
:10557600BFEF2AF0E3EF2AF0FF0E3E14336EFF0E64
:105586003F14346EFF0E4014356E7F0E4114366E96
:105596003350341035103610D8B4D4EF2AF0D6EF85
:1055A6002AF0DAEF2AF0010E436EE3EF2AF02BA081
:1055B600DFEF2AF0E1EF2AF0E3EF2AF0D6EF2AF048
:1055C6004350D8B4E9EF2AF0EBEF2AF00FEF2BF0B7
:1055D600010E2B26000E2C222D222E222EA0F6EFB7
:1055E6002AF0F8EF2AF00FEF2BF02BC533F52CC578
:1055F60034F52DC535F52EC536F536343632353209
:105606003432333233C52BF534C52CF535C52DF57B
:1056160036C52EF53C4A3D2A3DBE1AEF2BF03D50CD
:1056260008E13C28D8A01AEF2BF01CEF2BF027EF4F
:105636002BF0000E3D6E3C68000E2B6E000E2C6E9D
:10564600000E2D6E000E2E6E3DBE34EF2BF03D503B
:1056560006E13C04D8B032EF2BF034EF2BF042EFEA
:105666002BF0000E3D6E000E3C6E000E2B6E000EF3
:105676002C6E000E2D6E000E2E6E000E3B6E3CC57F
:1056860042F542A049EF2BF04BEF2BF04EEF2BF0FB
:105696002D8E4FEF2BF02D9ED89042302E6E05EFBB
:1056A6002AF012000501ED05EC11D8A45DEF2BF0F0
:1056B6005FEF2BF067EF2BF0000EED6F000EEC6F37
:1056C600000EFD6F000EFC6F000E536E000E526E44
:1056D600E0C52BF5E1C52CF5E2C52DF5E3C52EF5A4
:1056E6006B0E486E060E496ED890EC35D96EED35C8
:1056F600DA6ED890D936DA364850D9264950DA22A9
:10570600610078F32FF5610078F330F5610078F3E6
:1057160031F5610078F332F561EC37F02BC5E0F531
:105726002CC5E1F52DC5E2F52EC5E3F5EEC504F56C
:10573600EFC505F5066A076A000E07EC2FF06B0E3B
:10574600486E060E496ED8900501EC35D96EED35DA
:10575600DA6ED890D936DA364850D9264950DA2248
:10576600610010F4DEF4610014F4DEF4610018F454
:10577600DEF461001CF4DEF4E0C504F5E1C505F5D0
:10578600E2C506F5E3C507F56B0E486E060E496ED3
:10579600D890EC35D96EED35DA6ED890D936DA3642
:1057A6004850D9264950DA22610078F308F561009D
:1057B60078F309F5610078F30AF5610078F30BF5E3
:1057C60001EC25F004C5E0F505C5E1F506C5E2F5F1
:1057D60007C5E3F50501EC4BED2B524A532A53BEA0
:1057E600FEEF2BF0535009E1100E525CD8A0FEEFED
:1057F6002BF000EF2CF06BEF2BF0FC51FD11D8B421
:1058060007EF2CF009EF2CF089EF2CF0ECC504F52E
:10581600EDC505F5000E05BEFF0E066E076E010E00
:1058260007EC2FF004C52FF505C530F506C531F593
:1058360007C532F5000E166E000E176E800E186E36
:10584600400E196EE0C512F5E1C513F5E2C514F573
:10585600E3C515F561EC27F012C52BF513C52CF53C
:1058660014C52DF515C52EF588EC29F02BC54AF57E
:105876002CC54BF52DC54CF52EC54DF5000E166EF7
:10588600800E176EAB0E186E430E196E000E2F6E3D
:10589600000E306E000E316E400E326E4AC52BF58C
:1058A6004BC52CF54CC52DF54DC52EF588EC29F0CC
:1058B6002BC512F52CC513F52DC514F52EC515F5FA
:1058C60061EC27F012C54EF513C54FF514C550F51A
:1058D60015C551F54EC52BF54FC52CF550C52DF503
:1058E60051C52EF5000E2F6E300E306EF20E316E53
:1058F600460E326E88EC29F02BC544F52CC545F5CD
:105906002DC546F52EC547F5FBEF2CF0000E2F6E84
:10591600000E306E800E316E430E326E000E166E25
:10592600000E176E800E186E400E196EE0C512F549
:10593600E1C513F5E2C514F5E3C515F561EC27F0ED
:1059460012C52BF513C52CF514C52DF515C52EF569
:1059560088EC29F02BC54AF52CC54BF52DC54CF521
:105966002EC54DF5000E166E800E176EAB0E186E18
:10597600430E196E000E2F6E000E306E000E316E45
:10598600400E326E4AC52BF54BC52CF54CC52DF590
:105996004DC52EF588EC29F02BC512F52CC513F54F
:1059A6002DC514F52EC515F561EC27F012C54EF57B
:1059B60013C54FF514C550F515C551F54EC52BF554
:1059C6004FC52CF550C52DF551C52EF5000E2F6E81
:1059D600300E306EF20E316E460E326E88EC29F0C5
:1059E6002BC544F52CC545F52DC546F52EC547F501
:1059F6001200D8C554F5D9C555F5DAC556F5DBC537
:105A060057F544C554F545C555F546C556F547C53C
:105A160057F5810E486EFF0E496E54C54AF555C5B9
:105A26004BF556C54CF557C54DF5180E20EF2DF024
:105A3600D8904D324C324B324A32E82E1BEF2DF0C5
:105A46004A504824526E000E4920536E53BE35EF1D
:105A56002DF0535009E1170E525CD8A035EF2DF00A
:105A660037EF2DF041EF2DF044C544F545C545F51A
:105A760046C546F547C547F504EF2EF053BE46EF3B
:105A86002DF048EF2DF0B8EF2DF052C548F5FF0E7A
:105A9600496EFF0E4A6E7F0E4B6E000E4C6E4866C8
:105AA60057EF2DF05FEF2DF04C344C324B324A322B
:105AB6004932482E52EF2DF049C54EF54AC54FF5ED
:105AC6004BC550F54CC551F54E505414486E4F50C9
:105AD6005514496E505056144A6E515057144B6E19
:105AE600485049104A104B10D8A47CEF2DF07EEF99
:105AF6002DF080EF2DF037EF2DF054C548F555C544
:105B060049F556C54AF557C54BF5200E90EF2DF0D1
:105B1600D8904B324A3249324832E82E8BEF2DF07C
:105B2600485049104A104B10D8B49CEF2DF09EEF08
:105B36002DF0A6EF2DF04E5054264F5055225050C2
:105B46005622515057224E1C486E4F1C496E501C0F
:105B56004A6E511C4B6E48505416495055164A50C1
:105B660056164B505716FCEF2DF054C548F555C543
:105B760049F556C54AF557C54BF5200EC8EF2DF029
:105B8600D8904B324A3249324832E82EC3EF2DF0D4
:105B9600485049104A104B10D8A4D4EF2DF0D6EF38
:105BA6002DF0E0EF2DF0000E546E000E556E000E37
:105BB600566E000E576EFCEF2DF0D8905434486E9A
:105BC6005534496E56344A6E57344B6E4850491018
:105BD6004A104B10D8B4F2EF2DF0F4EF2DF0FCEF95
:105BE6002DF0000E546E000E556E800E566EBF0ED2
:105BF600576E54C544F555C545F556C546F557C5C2
:105C060047F512000501E9BF0BEF2EF00DEF2EF060
:105C16000EEF2EF0EA93E9BF1BEF2EF0E95106E1F5
:105C2600E805D8B019EF2EF01BEF2EF021EF2EF07D
:105C3600000E346E010E336E25EF2EF0E8C533F5F7
:105C4600E9C534F5E6C535F5E7C536F523C537F5B7
:105C560024C538F525C539F526C53AF527C53BF5DA
:105C660028C53CF529C53DF52AC53EF5000E406E12
:105C76004F0E3F6E000E0601576FB8EF2EF03F062F
:105C8600D8A04006080E3F24D96E060E4020DA6ED4
:105C960037C504F538C505F539C506F53AC507F51E
:105CA6003BC508F53CC509F53DC50AF53EC50BF5EE
:105CB6000A0E0C6E000E0D6E000E0E6E000E0F6EAE
:105CC600000E106E000E116E000E126E000E136E98
:105CD6005AEC32F004C52BF505C52CF506C52DF595
:105CE60007C52EF508C52FF509C530F50AC531F5E6
:105CF6000BC532F52B50300FDF6E3306D8A03406B5
:105D06003506D8A0360637C504F538C505F539C5B4
:105D160006F53AC507F53BC508F53CC509F53DC589
:105D26000AF53EC50BF50A0E0C6E000E0D6E000E42
:105D36000E6E000E0F6E000E106E000E116E000E2F
:105D4600126E000E136EE2EC31F004C537F505C590
:105D560038F506C539F507C53AF508C53BF509C551
:105D66003CF50AC53DF50BC53EF53F504010D8B48D
:105D7600BFEF2EF0C1EF2EF0F2EF2EF037503810B5
:105D860039103A103B103C103D103E10D8A4CEEF0F
:105D96002EF0D0EF2EF042EF2EF034BEDDEF2EF0D7
:105DA600345006E13304D8B0DBEF2EF0DDEF2EF0F1
:105DB60042EF2EF036BEE8EF2EF0365008E13504FD
:105DC600D8A0E8EF2EF0EAEF2EF0F2EF2EF0050164
:105DD600EAB3F0EF2EF0F2EF2EF042EF2EF021C5EF
:105DE60016F522C517F5080E3F24186E060E40203C
:105DF600196E35C51AF536C51BF527EC33F016C5F1
:105E060021F517C522F512000C6E0C50D8B40EEF12
:105E16002FF010EF2FF032EF2FF007BE17EF2FF015
:105E260015EF2FF032EF2FF004C508F505C509F57B
:105E360006C50AF507C50BF5081E091E0A1E0B1E28
:105E4600082A000E09220A220B2208C50EF509C5EA
:105E56000FF50AC510F50BC511F53AEF2FF004C57D
:105E66000EF505C50FF506C510F507C511F5045065
:105E7600051006100710D8A443EF2FF045EF2FF0BA
:105E86004FEF2FF0000E046E000E056E000E066E2C
:105E9600000E076EE0EF2FF0960E0D6E59EF2FF005
:105EA6000D2AD890113210320F320E32000E0E1417
:105EB600086E000E0F14096E000E10140A6EFE0E08
:105EC60011140B6E085009100A100B10D8A46EEFAF
:105ED6002FF070EF2FF053EF2FF07EEF2FF00D2AFB
:105EE600010E0E26000E0F2210221122D89011321A
:105EF60010320F320E32000E0E14086E000E0F1402
:105F0600096E000E10140A6EFF0E11140B6E085067
:105F160009100A100B10D8A493EF2FF095EF2FF06D
:105F260072EF2FF09DEF2FF00D06D8900E360F363C
:105F36001036113610BEA2EF2FF0A4EF2FF0ACEF03
:105F46002FF0020E0D60AAEF2FF0ACEF2FF097EFB7
:105F56002FF00DB0B1EF2FF0B3EF2FF0B4EF2FF01D
:105F6600109ED8900D320DC508F5096A0A6A0B6AAB
:105F760008C50BF50A6A096A086A08500E12095024
:105F86000F120A5010120B5011120C50D8B4CEEF4B
:105F96002FF0D0EF2FF0D8EF2FF007BED7EF2FF06E
:105FA600D5EF2FF0D8EF2FF0118E0EC504F50FC5E3
:105FB60005F510C506F511C507F5120006340734B8
:105FC6000D6E0D50D8A4EAEF2FF0ECEF2FF0F6EFA0
:105FD6002FF0000E046E000E056E000E066E000E0B
:105FE600076E63EF30F004C508F505C509F506C56B
:105FF6000AF507C50BF5200E06EF30F0D8900B32E8
:106006000A3209320832E82E01EF30F008500C6EE1
:10601600068EFF0E0416FF0E0516FF0E0616000E60
:106026000716960E0D5E0DBE1DEF30F01BEF30F01D
:1060360033EF30F00D50800A970FD8B025EF30F0CF
:1060460027EF30F029EF30F0ECEF2FF0D890073241
:106056000632053204320D3E29EF30F04BEF30F0B8
:106066001F0E0D6439EF30F03BEF30F043EF30F0A8
:10607600ECEF2FF0D89004360536063607360D06B7
:106086000D50D8A449EF30F04BEF30F03DEF30F033
:106096000C50D8B451EF30F053EF30F05BEF30F0E6
:1060A600071E061E051E046C000E05220622072288
:1060B60004C504F505C505F506C506F507C507F5C6
:1060C6001200000E2B14336E000E2C14346E800E4C
:1060D6002D14356E7F0E2E14366E33503410351057
:1060E6003610D8A479EF30F07BEF30F083EF30F044
:1060F600000E2B6E000E2C6E000E2D6E000E2E6EF8
:10610600000E2F14336E000E3014346E800E3114D0
:10611600356E7F0E3214366E33503410351036100D
:10612600D8A498EF30F09AEF30F0A2EF30F0000EDE
:106136002F6E000E306E000E316E000E326E2EAED9
:10614600A7EF30F0A9EF30F0B2EF30F02B6C2C1E39
:10615600D8B02C2A2D1ED8B02D2A800E2E5632AE3F
:10616600B7EF30F0B9EF30F0C2EF30F02F6C301EE1
:10617600D8B0302A311ED8B0312A800E3256000EE1
:106186002B1A000E2C1A000E2D1A800E2E1A000E37
:106196002F1A000E301A000E311A800E321A2F50A6
:1061A6002B5C30502C5831502D5832502E58D8B0C8
:1061B600DFEF30F0E1EF30F0E4EF30F0D890E5EFCC
:1061C60030F0D8801200DCC50EF5DDC50FF5DEC552
:1061D60010F5DFC511F504C50EF505C50FF506C5A5
:1061E60010F507C511F50EC508F50FC509F510C55B
:1061F6000AF511C50BF5180E06EF31F0D8900B32E3
:106206000A3209320832E82E01EF31F008500C6EDE
:106216000D6A0C500D10D8A413EF31F015EF31F0C4
:1062260035EF31F0D8900E34086E0F34096E103405
:106236000A6E11340B6E085009100A100B10D8A400
:1062460027EF31F029EF31F02FEF31F0000E056E18
:10625600020E046E64EF31F0000E056E030E046E3E
:1062660064EF31F00C280D10D8A43CEF31F03EEF6E
:1062760031F060EF31F00EC508F50FC509F510C510
:106286000AF511C50BF5090ED890083609360A36F7
:106296000B36E82E47EF31F0085009100A100B10A4
:1062A600D8B458EF31F05BEF31F0010E5CEF31F00E
:1062B600000E046E056A64EF31F0000E056E040EE2
:1062C600046E120004C50BF505C50CF506C50DF5E3
:1062D60007C50EF50806D8A00906082806E109280C
:1062E600D8A478EF31F07AEF31F087EF31F0000E75
:1062F600056E000E046EE1EF31F00B4A0C2A0D4AD2
:106306000E2A0806D8A0090661002CF4D9F461000B
:1063160030F4DAF4DF50D8B493EF31F095EF31F082
:10632600CAEF31F0610034F4F6F4610038F4F7F4A2
:10633600000EF86E0800F5500009D8B4A5EF31F04C
:10634600A7EF31F0CAEF31F008500910D8B4AEEF1C
:1063560031F0B0EF31F0CAEF31F061002CF4D9F42E
:10636600610030F4DAF4DF500A6E610034F4F6F4BA
:10637600610038F4F7F4000EF86E0800F5500A18BC
:10638600D8B4C8EF31F0CAEF31F080EF31F06100D8
:106396002CF4D9F4610030F4DAF4DF500A6E6100AF
:1063A60034F4F6F4610038F4F7F4000EF86E0800E1
:1063B600F5500A5C046E056AD8A00506120021EEA7
:1063C60014F1070EDE6AE806FDE20C500D100E1001
:1063D6000F101010111012101310D8B4F5EF31F081
:1063E600F7EF31F049EF32F0010E1C6E05EF32F097
:1063F600D8900C360D360E360F361036113612364C
:1064060013361C2A13AE0AEF32F00CEF32F0FBEF14
:1064160031F0D89014361536163617361836193622
:106426001A361B360C50045C0D5005580E50065893
:106436000F500758105008581150095812500A5852
:1064460013500B58D8A02AEF32F02CEF32F03DEF64
:1064560032F00C50045E0D50055A0E50065A0F507D
:10646600075A1050085A1150095A12500A5A135016
:106476000B5A1480D89013321232113210320F3266
:106486000E320D320C321C2E0CEF32F014C504F510
:1064960015C505F516C506F517C507F518C508F59A
:1064A60019C509F51AC50AF51BC50BF512000C50DE
:1064B6000D100E100F101010111012101310D8B46A
:1064C60067EF32F069EF32F0B1EF32F0010E146E81
:1064D60077EF32F0D8900C360D360E360F36103672
:1064E600113612361336142A13AE7CEF32F07EEFD5
:1064F60032F06DEF32F00C50045C0D5005580E5022
:1065060006580F5007581050085811500958125085
:106516000A5813500B58D8A093EF32F095EF32F08B
:10652600A5EF32F00C50045E0D50055A0E50065A77
:106536000F50075A1050085A1150095A12500A5A49
:1065460013500B5AD89013321232113210320F32C6
:106556000E320D320C32142E7EEF32F004C504F5E5
:1065660005C505F506C506F507C507F508C508F509
:1065760009C509F50AC50AF50BC50BF51200D00EBB
:106586005C24D96EDA6A050EDA22000EDF6E02018D
:10659600B2A7D0EF32F0D2EF32F0E8EF32F0D00E01
:1065A6005C24D96EDA6A050EDA220501DF8202D88A
:1065B600E8EF32F00500FA6E06016651FD6E67518E
:1065C600FE6E6851FF6EFA5012000201B2A3EEEFA2
:1065D60032F0F0EF32F006EF33F0D00E5C24D96ED5
:1065E600DA6A050EDA220501DF8402D806EF33F0F7
:1065F6000500FA6E06016351FD6E6451FE6E65512B
:10660600FF6EFA501200D00E5C24D96EDA6A050EBF
:10661600DA22DF50D8B412EF33F014EF33F024EF60
:1066260033F002D822EF33F00500FA6E060160510E
:10663600FD6E6151FE6E6251FF6EFA50120026EF3A
:1066460033F047EC38F012000501EAA12DEF33F0E4
:106656002FEF33F039EF33F018C50FF519C510F5E4
:1066660016C511F517C512F584EC37F01BBE3EEFC3
:1066760033F040EF33F046EF33F01AC51FF51BC574
:1066860020F54AEF33F0000E206E000E1F6E000E4E
:106696001E6E000E1D6E5CEF33F0000E076E200EB0
:1066A600066E16C508F517C509F5F1EC34F01D4A56
:1066B6001E2A1F501D5C1E50800A1C6E2050800A28
:1066C6001C58D8A069EF33F06BEF33F050EF33F07E
:1066D6000501EAB171EF33F073EF33F07DEF33F07C
:1066E60018C50FF519C510F516C511F517C512F51C
:1066F60084EC37F018C504F519C505F5A6EC37F096
:106706001F500424166E20500520176E1200000E2E
:10671600096E07BE93EF33F091EF33F099EF33F044
:10672600066C071ED8B0072A010E096E05BEA0EF3B
:1067360033F09EEF33F0A6EF33F0046C051ED8B0AD
:10674600052A010E091A000E0B6E000E0A6E06507F
:106756000710D8B4B1EF33F0B3EF33F0DBEF33F01B
:10676600010E086EBBEF33F0D89006360736082ABE
:1067760007AEC0EF33F0C2EF33F0B7EF33F0D89087
:106786000A360B360650045C07500558D8A0CEEFE3
:1067960033F0D0EF33F0D5EF33F00650045E0750F8
:1067A600055A0A80D89007320632082EC2EF33F017
:1067B6000950D8B4E1EF33F0E3EF33F0E7EF33F00D
:1067C6000A6C0B1ED8B00B2A0AC504F50BC505F5D5
:1067D6001200AEEC38F0D68E740E046E6E0E056E98
:1067E600000E066E52EC39F0740E046E6E0E056ED7
:1067F600000E066E59EC39F0060E06016A6F130E8E
:10680600696FAD0EE82EFED7692FFCD76A2FFAD72F
:1068160000D02FEC39F0BFEC38F00009D8B416EFF1
:1068260034F018EF34F0FFEF33F0CFEC38F0000916
:10683600D8B420EF34F022EF34F029EF34F0380EDC
:106846000501C66F380EC76F86EC38F00C0E0501D1
:10685600C66F380EC76F55EC2BF044C5C8F545C555
:10686600C9F546C5CAF547C5CBF565EC39F004C58B
:10687600CCF505C5CDF586EC38F0FFEF33F00DEF1E
:1068860000F0000E096E05BE4DEF34F04BEF34F00C
:1068960053EF34F0046C051ED8B0052A010E096EBC
:1068A60007BE5AEF34F058EF34F05EEF34F0066C62
:1068B600071ED8B0072A06500710D8B465EF34F083
:1068C60067EF34F08BEF34F0010E086E6FEF34F0A3
:1068D600D89006360736082A07AE74EF34F076EFFE
:1068E60034F06BEF34F00650045C07500558D8A01E
:1068F6007FEF34F081EF34F085EF34F00650045E1C
:106906000750055AD89007320632082E76EF34F033
:106916000950D8B491EF34F093EF34F097EF34F098
:10692600046C051ED8B0052A04C504F505C505F591
:106936001200000E04140C6E000E05140D6E800E6F
:1069460006140E6E7F0E07140F6E0C500D100E10EF
:106956000F10D8A4B1EF34F0B3EF34F0BBEF34F03E
:10696600000E046E000E056E000E066E000E076E1B
:10697600000E08140C6E000E09140D6E800E0A141B
:106986000E6E7F0E0B140F6E0C500D100E100F10A6
:10699600D8A4D0EF34F0D2EF34F0DAEF34F0000EB2
:1069A600086E000E096E000E0A6E000E0B6E085081
:1069B60004180FE1095005180CE10A50061809E100
:1069C6000B500718D8B4EAEF34F0ECEF34F0EFEFE1
:1069D60034F0D890F0EF34F0D88012000850091047
:1069E600D8B4F8EF34F0FAEF34F003EF35F008508E
:1069F6000910D8A401EF35F003EF35F008EF35F0B4
:106A0600065060EC39F03BEF35F020EE04F008500C
:106A1600D9260950DA22DE50DE10D8B415EF35F04B
:106A260017EF35F032EF35F020EE04F00850D92696
:106A36000950DA2210EE02F00850E1260950E2224F
:106A4600DE50E65CE650800A0E6EDE50800A0E5876
:106A5600D8B030EF35F032EF35F03BEF35F020EEC1
:106A660002F00850D9260950DA22DE2A000EDD226D
:106A76001200A290840E046E650E056E000E066E60
:106A860036EC39F0000E0201A56F000EA66F000E5F
:106A9600A76F000EA86F000EA96F000EAA6FA00EBA
:106AA600AB6F800EAC6F000EAD6F8A0EAE6F000E30
:106AB600AF6F000EB06F000EB16F000EB26F000E1A
:106AC600B36F2C0E046E730E056E000E066E44EC4C
:106AD60039F02A0E046E730E056E000E066E3DEC3E
:106AE60039F0FC0E046E720E056E000E066E4BEC4F
:106AF60039F0000E0501F26F000E5C6E000E5B6E43
:106B0600000E5A6EA2801200000EBE6E000EBF6E00
:106B1600000EC06E080ECA6EC668ED0EC76EEE0E8B
:106B2600C86ECC0E0401106FCC0E086FFE0E006FFF
:106B3600000E216F000E096F000E016F000E116F1F
:106B4600000E026F000E0A6F000E126F03690B69CA
:106B5600136904690C691469080E246F1793179B4F
:106B66001683168B1583158B2E0E046E730E056E0B
:106B7600000E066E59EC39F0300E046E730E056E7B
:106B8600000E066E52EC39F09E8E200E02010A6F40
:106B96000D0E3D6F460E0D6F080E726F1200066EDB
:106BA600000E056E6AEC39F0046E040E0418D8B4B3
:106BB600DFEF35F0E1EF35F0F2EF35F00604D8B44B
:106BC600E7EF35F0E9EF35F0F2EF35F0040E061891
:106BD600D8A4F0EF35F0F2EF35F012EF36F0010100
:106BE60003510618F80B0618036F05EF36F01DA9BA
:106BF600FFEF35F001EF36F005EF36F0020E056EC9
:106C060014EF36F00239E832070B0618D8A40EEF57
:106C160036F010EF36F0FAEF35F014EF36F0010EDD
:106C2600056E05501200C2C558F5C3C559F5000ECC
:106C36000501E56F000EE46F34EF36F0C0C5A4F52C
:106C4600C1C5A5F5580EA66F050EA76FC4C5A8F554
:106C5600C5C5A9F588EC22F00501A451E427A55184
:106C6600E523610060F5F6F4610064F5F7F4000EC3
:106C7600F86E0800F5500009D8A444EF36F046EF48
:106C860036F021EF36F0E4C5C0F5E5C5C1F51200D2
:106C9600200EF66E730EF76E000EF86E01EEFCF126
:106CA60010EE04F00900F5C4EEF4E550E150FAE107
:106CB60001EE6BF211EE00F0EE6AE550E150FCE1F8
:106CC600E250FAE101EE00F2600EEE6AE806FDE13E
:106CD60001EED0F1230EEE6AE806FDE15C6A5B6A1E
:106CE6005A6A0401080E5D6F000E5E6F000E5F6F3C
:106CF6000001ECEF33F006C50AF507C50BF504C530
:106D06000CF505C50DF50A50086E0B50096E0A4ABA
:106D16000B2A610020F4F6F4610024F4F7F4000E67
:106D2600F86E610030F4D9F4610034F4DAF40C4AF8
:106D36000D2A370EF76403D00800F55005D0F6C4C7
:106D4600E9F4F7C4EAF4EF50DF6EDF50D8A4AEEFF3
:106D560036F0B0EF36F086EF36F01200BF0E0C6E4E
:106D6600FF0E0D6E0AC50EF50BC50FF50C500E265F
:106D76000D500F220F500AE11A0E0E5CD8A0C6EF76
:106D860036F0C9EF36F0010ECAEF36F0000E106E7F
:106D9600116A10501110D8B4D3EF36F0D5EF36F093
:106DA600DCEF36F0200E0A100A6E0B500B6EE0EF89
:106DB60036F00AC50AF50BC50BF51200A2A0E6EFE0
:106DC60036F0E8EF36F0FFEF36F0B2A0EDEF36F032
:106DD600EFEF36F0FFEF36F002D8FDEF36F00500A4
:106DE600FA6E0501F951FD6EFA51FE6EFB51FF6E0A
:106DF600FA5012000FEF37F09EAE04EF37F006EFB1
:106E060037F00FEF37F0AEAE0BEF37F00DEF37F090
:106E16000FEF37F05CEC38F011000101018F040E22
:106E2600D2EC35F00009D8A41BEF37F01DEF37F090
:106E360039EF37F0000E01014C6F380E4D6F000E22
:106E46004E6F000E4F6F600E006F970E016F100EA3
:106E5600026F25EC39F011EC39F01BEC39F094ECAB
:106E660039F031EC38F0060ED2EC35F01200D0AA2B
:106E76003FEF37F041EF37F045EF37F087EC39F069
:106E860060EF37F081EC39F08DEC39F0036E03508A
:106E96000501EE6FEF6B71EC38F00501F06F000E37
:106EA6006FEC39F0010E0501F16F680E036EE40E0A
:106EB600E82EFED7032EFCD700D01200000E2F1AA4
:106EC600000E301A000E311A800E321A2BC504F548
:106ED6002CC505F52DC506F52EC507F52FC508F5F4
:106EE60030C509F531C50AF532C50BF501EC25F0BB
:106EF60004C52BF505C52CF506C52DF507C52EF5DC
:106F06001200000E156E000E146E95EF37F013C5C5
:106F160006F5076A11C508F512C509F5F1EC34F056
:106F2600144A152A14500F24D96E15501020DA6E03
:106F3600DF50136E1350D8A4A3EF37F0A5EF37F048
:106F46008AEF37F0120004C506F505C507F5AEEF62
:106F560037F0044A052A610010F4D9F4610014F4EC
:106F6600DAF4DF50D8A4BAEF37F0BCEF37F0ACEF65
:106F760037F00650045C046E07500558056E120083
:106F8600BF0E066EFF0E076E04C508F505C509F5AA
:106F9600065008260750092209500AE11A0E085C15
:106FA600D8A0D8EF37F0DBEF37F0010EDCEF37F083
:106FB600000E046E056A1200045005100610071034
:106FC600D8B4E8EF37F0EAEF37F0F2EF37F0000E1B
:106FD600041A000E051A000E061A800E071A04C5BA
:106FE60004F505C505F506C506F507C507F512003E
:106FF6000501F351F411F511D8B404EF38F006EF9A
:1070060038F013EF38F002D813EF38F00500FA6EB7
:10701600F351FD6EF451FE6EF551FF6EFA501200FB
:107026000401179B12000501F651F711F811D8B4A7
:107036001FEF38F021EF38F02EEF38F002D82EEFA0
:1070460038F00500FA6EF651FD6EF751FE6EF851F6
:10705600FF6EFA501200040117931200000E046E20
:107066000450020DFF0EF324D96E050EF420DA6EDD
:10707600000EDF6E042A0450D8B444EF38F046EF11
:1070860038F033EF38F01200000E5C24D96EDA6A5D
:10709600060EDA22A1C2DFF45C2A070E5C6456EF04
:1070A60038F058EF38F05AEF38F0000E5C6E5A2A76
:1070B6001200040117A362EF38F064EF38F066EFB0
:1070C60038F016EC38F0040117AB6CEF38F06EEFC1
:1070D60038F070EF38F0FBEC37F01200B1B676EF0F
:1070E60038F079EF38F0010E7AEF38F0000E016EC5
:1070F6000150D8B481EF38F083EF38F084EF38F0E0
:10710600B19601501200C80E0501CE6F050ECF6F65
:10711600000EC06F000EC16FC6C5C2F5C7C5C3F568
:10712600CE0EC46F050EC56F16EC36F01200000EBB
:107136000001606F000E616F000E626F000E636FDC
:10714600000E646F000E656F000E666F000E676FAF
:10715600000E686F120092EC39F09AEC38F087EC6A
:1071660035F0FAEC38F0DFEC38F006EC39F03CECB0
:1071760035F010EC37F012000501F151D8B4C6EF26
:1071860038F0C8EF38F0CDEF38F0000EF16F010E91
:10719600CEEF38F0000E12000501F051D8B4D6EF4C
:1071A60038F0D8EF38F0DDEF38F0000EF06F010E52
:1071B600DEEF38F0000E1200040E0301266F000EFB
:1071C600256F000E276FFD0E236F000E226FB196FE
:1071D600A30E246F1200046EB2A2F4EF38F0F6EF9D
:1071E60038F0EFEF38F0610010F4A3F21200600EF1
:1071F6000001AD6F000EAF6F000EB36F080EB16FDA
:10720600000EB06F1200820E03011B6FFD0E196F88
:10721600000E186FB19E830E1A6F1200000E010148
:10722600506F040E516F600E526F050E536F1200B1
:10723600000E01015C6F040E5D6F600E5E6F050E41
:107246005F6F12001F0E0101046F1F0E056F5E0EA9
:10725600066F000E076F1200C088350EE82EFED7A7
:1072660000F0C098120004C5F9F505C5FAF506C583
:10727600FBF5120004C563F605C564F606C565F69A
:10728600120004C566F605C567F606C568F612005F
:1072960004C560F605C561F606C562F6120004C5AA
:1072A600F3F505C5F4F506C5F5F5120004C5F6F5C2
:1072B60005C5F7F506C5F8F51200056E0550EEECA6
:1072C60038F01200EEC504F5EFC505F51200010110
:1072D6000239E832070B1200026E025074EC39F0E4
:1072E6001200016E610004F422F31200600088FCB3
:1072F60001F50150120047EC38F0120084EC39F029
:1073060012000301249F12008AEC39F012000301D7
:10731600248F120079EC39F0120001000100D69A90
:0C732600120012001200120012001200EF
:020000040020DA
:10000000FF0FFF0FFF0FFF0FFF0FFF0FFF0FFF0F80
:10001000FF0FFF0FFF0FFF0FFF0FFF0FFF0FFF0F70
:020000040030CA
:100000008CFFF7FF9FFFFFFFFFFFFFFFFFFFFFFFDB
:10001000FFFFFFFFFFFFFFFFFFFFFFFFFFFFFFFFF0
:04002000FFFFFFFFE0
:00000001FF
