:040000000DEF00F010
:040008002FEF35F0B1
:06001800FF00FCEF3AF0CE
:10380000000001020304050607080C1014182030FC
:10381000405001476F742044697374616E63652082
:1038200052656164696E673A2025662C2054696D83
:103830006572205469636B733A2025750A0D005038
:103840004F535349424C4520544D5230204F56451A
:1038500052464C4F573A2000494E46004E414E00CA
:10386000696E66006E616E006C660000000E0501F8
:10387000D56F000ED46FB6C5E6F5B7C5E7F5B8C588
:10388000E8F5B9C5E9F5E9BF4AEF1CF048EF1CF0CF
:1038900060EF1CF0000ED56F010ED46FE6C560F529
:1038A000E7C561F5E8C562F5E9C563F51EEC3EF0D4
:1038B00060C5E6F561C5E7F562C5E8F563C5E9F5FC
:1038C000000E0501ED6F000EEC6F12C6D8F513C6A1
:1038D000D9F5D451D511D8A470EF1CF072EF1CF0BB
:1038E0007AEF1CF0060116A578EF1CF07AEF1CF0B9
:1038F00095EF1CF00501D451D511D8A482EF1CF02E
:1039000084EF1CF08AEF1CF0000EC16F2B0EC06F0D
:103910008EEF1CF0000EC16F2D0EC06FC0C518F6E3
:10392000EC4BED2BD807D8A0D907E6C560F5E7C565
:1039300061F5E8C562F5E9C563F5B8EC33F005015A
:1039400060056111D8A4A7EF1CF0A9EF1CF0F2EFFD
:103950001CF0BF0EBB6FFF0EBC6FBA51BD6FBE6BCC
:10396000BB51BD27BC51BE23BE5107E11A0EBD5D40
:10397000D8B0BDEF1CF0BFEF1CF0CDEF1CF0180E5F
:10398000EC25606F060EED21616F580E626F380EE8
:10399000636F75EC3BF0D9EF1CF0180EEC25606FEF
:1039A000060EED21616F600E626F380E636F75EC6D
:1039B0003BF00501FD0ED827FF0ED923B4C572F5E3
:1039C000B5C573F5180E746F060E756FD8C576F50C
:1039D000D9C577F587EC36F072C5B4F573C5B5F582
:1039E00074EF22F0E6C560F5E7C561F5E8C562F55C
:1039F000E9C563F5B8EC33F0050160516111D8A455
:103A000004EF1DF006EF1DF04FEF1DF0BF0EBB6F72
:103A1000FF0EBC6FBA51BD6FBE6BBB51BD27BC5111
:103A2000BE23BE5107E11A0EBD5DD8B01AEF1DF0DE
:103A30001CEF1DF02AEF1DF0180EEC25606F060E2E
:103A4000ED21616F5C0E626F380E636F75EC3BF0B9
:103A500036EF1DF0180EEC25606F060EED21616F3C
:103A6000640E626F380E636F75EC3BF00501FD0E5E
:103A7000D827FF0ED923B4C572F5B5C573F5180E56
:103A8000746F060E756FD8C576F5D9C577F587ECD6
:103A900036F072C5B4F573C5B5F574EF22F0000EBB
:103AA000EE6F000EEF6F800EF06F3F0EF16F000EA5
:103AB000EB6F000EEA6FE6C560F5E7C561F5E8C596
:103AC00062F5E9C563F5000E646F000E656F000EC8
:103AD000666F000E676F2DEC39F00501D8B073EFFB
:103AE0001DF075EF1DF0FAEF1DF094EF1DF0EEC51F
:103AF0006EF5EFC56FF5F0C570F5F1C571F5000E07
:103B0000726F000E736F200E746F410E756F49EC6B
:103B100027F06EC5EEF56FC5EFF570C5F0F571C510
:103B2000F1F50501EA4BEB2BE6C587F5E7C588F50E
:103B3000E8C589F5E9C58AF5000E726F000E736F4E
:103B4000200E746F410E756FEEC56EF5EFC56FF503
:103B5000F0C570F5F1C571F549EC27F06EC58BF530
:103B60006FC58CF570C58DF571C58EF535EC33F0EC
:103B70000501D8B0BEEF1DF0C0EF1DF077EF1DF0CE
:103B8000E0EF1DF0EEC587F5EFC588F5F0C589F5C6
:103B9000F1C58AF5000E8B6F000E8C6F200E8D6FB5
:103BA000410E8E6F71EC29F087C5EEF588C5EFF5F3
:103BB00089C5F0F58AC5F1F50501EA07D8A0EB073C
:103BC000E6C587F5E7C588F5E8C589F5E9C58AF54D
:103BD000EEC58BF5EFC58CF5F0C58DF5F1C58EF50D
:103BE00035EC33F00501D8A0F8EF1DF0FAEF1DF029
:103BF000C2EF1DF0BAC566F5676B10EC3DF005012C
:103C00006651DB6FDBC5DAF5670EDB19D8A40BEF65
:103C10001EF00DEF1EF035EF1EF0060114511511C8
:103C2000D8A415EF1EF017EF1EF01BEF1EF0000ECC
:103C3000156F010E146F15BF28EF1EF0155106E128
:103C40001405D8B026EF1EF028EF1EF02FEF1EF05F
:103C5000000E0501D76F060ED66F3FEF1EF014C69B
:103C6000D6F515C6D7F53FEF1EF0060115BF3BEFA1
:103C70001EF03DEF1EF028EF1EF02FEF1EF0670E36
:103C80000501DB19D8A447EF1EF049EF1EF078EFCD
:103C90001EF0EBAF57EF1EF0FC0EEA5DFF0EEB5986
:103CA000D8A055EF1EF057EF1EF076EF1EF0FF0E76
:103CB000BB6FFF0EBC6FD6C5BDF5D7C5BEF5BB51FA
:103CC000BD27BC51BE23EA51BD5DBE51800ABF6F06
:103CD000EB51800ABF59D8A070EF1EF072EF1EF0B2
:103CE00076EF1EF0660EDA6F78EF1EF0650EDA6F73
:103CF000D6C5CCF5D7C5CDF5670EDB19D8A483EFB3
:103D00001EF085EF1EF095EF1EF0660EDA19D8A4AE
:103D10008CEF1EF08EEF1EF097EF1EF0EBBF95EFCD
:103D20001EF093EF1EF097EF1EF0CC4BCD2B660EDE
:103D3000DA19D8A49EEF1EF0A0EF1EF0C0EF1EF01F
:103D4000EBBFA7EF1EF0A5EF1EF0B3EF1EF0000EC5
:103D5000EE6F000EEF6F800EF06F3F0EF16F000EF2
:103D6000EB6F000EEA6F670EDB19D8B4BAEF1EF0E6
:103D7000BCEF1EF0C0EF1EF0EA51CC27EB51CD2373
:103D8000000EE56F000EE46FE6C5DCF5E7C5DDF576
:103D9000E8C5DEF5E9C5DFF5EEC5CEF5EFC5CFF533
:103DA000F0C5D0F5F1C5D1F552EF1FF0DCC587F5B0
:103DB000DDC588F5DEC589F5DFC58AF5EEC58BF56D
:103DC000EFC58CF5F0C58DF5F1C58EF571EC29F0D8
:103DD00087C5A0F588C5A1F589C5A2F58AC5A3F553
:103DE0002FEC2FF0A0C5E0F5A1C5E1F5A2C5E2F5E5
:103DF000A3C5E3F5E0C560F5E1C561F5E2C562F58F
:103E0000E3C563F5B1EC32F060C5D2F561C5D3F519
:103E1000DCC587F5DDC588F5DEC589F5DFC58AF522
:103E2000EEC572F5EFC573F5F0C574F5F1C575F51E
:103E3000E0C56EF5E1C56FF5E2C570F5E3C571F556
:103E400049EC27F06EC58BF56FC58CF570C58DF507
:103E500071C58EF558EC3DF087C5DCF588C5DDF5FC
:103E600089C5DEF58AC5DFF5EEC587F5EFC588F5AE
:103E7000F0C589F5F1C58AF5000E05018B6F000EBE
:103E80008C6F200E8D6F410E8E6F71EC29F087C5FF
:103E9000EEF588C5EFF589C5F0F58AC5F1F50501A0
:103EA000E44BE52BCC51E45DE551800ABB6FCD516D
:103EB000800ABB59D8A05FEF1FF061EF1FF0D6EF6B
:103EC0001EF0EEC56EF5EFC56FF5F0C570F5F1C5E6
:103ED00071F5000E726F000E736FA00E746F400EBE
:103EE000756F49EC27F06EC5E0F56FC5E1F570C55B
:103EF000E2F571C5E3F5DCC587F5DDC588F5DEC5FE
:103F000089F5DFC58AF5E0C58BF5E1C58CF5E2C51D
:103F10008DF5E3C58EF535EC33F00501D8B093EFA0
:103F20001FF095EF1FF09FEF1FF0000EE06F000EE7
:103F3000E16F000EE26F000EE36FC8EF1FF0DCC50B
:103F400060F5DDC561F5DEC562F5DFC563F5E0C589
:103F500064F5E1C565F5E2C566F5E3C567F52DECE9
:103F600039F00501D8A0B7EF1FF0B9EF1FF0C8EF87
:103F70001FF0D2B1BEEF1FF0C0EF1FF0C8EF1FF06F
:103F8000000EE06F000EE16F000EE26F000EE36FB7
:103F9000E6C560F5E7C561F5E8C562F5E9C563F515
:103FA000E0C564F5E1C565F5E2C566F5E3C567F50D
:103FB000E8EC24F060C5DCF561C5DDF562C5DEF531
:103FC00063C5DFF5DCC587F5DDC588F5DEC589F598
:103FD000DFC58AF5000E0501726F000E736F200EAB
:103FE000746F410E756FCEC56EF5CFC56FF5D0C538
:103FF00070F5D1C571F549EC27F06EC58BF56FC52D
:104000008CF570C58DF571C58EF535EC33F0050175
:10401000D8A00DEF20F00FEF20F037EF20F0EA4BA3
:10402000EB2BCEC56EF5CFC56FF5D0C570F5D1C5FC
:1040300071F5000E726F000E736F200E746F410EDB
:10404000756F49EC27F06EC5CEF56FC5CFF570C51D
:10405000D0F571C5D1F5660E0501DA19D8A433EF94
:1040600020F035EF20F037EF20F0CC4BCD2BCEC534
:10407000EEF5CFC5EFF5D0C5F0F5D1C5F1F5650E7C
:10408000DA19D8B446EF20F048EF20F04EEF20F0D8
:10409000EAC5CAF5EBC5CBF552EF20F0000ECB6FA9
:1040A000000ECA6F000EC96F000EC86F000EC76FFA
:1040B000000EC66F000EE56F000EE46F50EF21F0AA
:1040C000DCC587F5DDC588F5DEC589F5DFC58AF570
:1040D000EEC58BF5EFC58CF5F0C58DF5F1C58EF508
:1040E00071EC29F087C5A0F588C5A1F589C5A2F5B1
:1040F0008AC5A3F52FEC2FF0A0C5E0F5A1C5E1F529
:10410000A2C5E2F5A3C5E3F5E0C560F5E1C561F53B
:10411000E2C562F5E3C563F5B1EC32F060C5D2F5F6
:1041200061C5D3F5060116B998EF20F09AEF20F09B
:10413000B8EF20F00501D251D311D8A4A2EF20F09E
:10414000A4EF20F0B8EF20F0670EDB19D8A4ABEF96
:1041500020F0ADEF20F0B8EF20F0CBBFB4EF20F0AF
:10416000B2EF20F0B8EF20F0C64BC72B03EF21F0E1
:104170000501C851C911D8A4C0EF20F0C2EF20F04A
:10418000ECEF20F0CBBFC9EF20F0C7EF20F0ECEF51
:1041900020F0180EEC25D96E060EED21DA6E2E0EEB
:1041A000DF6EEC4BED2BD807D8A0D907000EC96FF6
:1041B000010EC86FECEF20F0180EEC25D96E060E3C
:1041C000ED21DA6E300EDF6EEC4BED2BD807D8A068
:1041D000D907C607D8A0C707C651C711D8A4F3EF9F
:1041E00020F0F5EF20F0DCEF20F0180EEC25D96E72
:1041F000060EED21DA6ED251300FDF6EEC4BED2B57
:10420000D807D8A0D907DCC587F5DDC588F5DEC598
:1042100089F5DFC58AF5EEC572F5EFC573F5F0C512
:1042200074F5F1C575F5E0C56EF5E1C56FF5E2C54C
:1042300070F5E3C571F549EC27F06EC58BF56FC5D8
:104240008CF570C58DF571C58EF558EC3DF087C5C0
:10425000DCF588C5DDF589C5DEF58AC5DFF5EEC577
:1042600087F5EFC588F5F0C589F5F1C58AF5000E2B
:1042700005018B6F000E8C6F200E8D6F410E8E6FBF
:1042800071EC29F087C5EEF588C5EFF589C5F0F525
:104290008AC5F1F50501CA07D8A0CB07E44BE52B89
:1042A000CC51E45DE551800ABB6FCD51800ABB590A
:1042B000D8B05DEF21F05FEF21F06DEF21F0EDBFA1
:1042C0006BEF21F0ED5109E14B0EEC5DD8A06BEFE7
:1042D00021F06DEF21F060EF20F0C851C911D8A492
:1042E00074EF21F076EF21F089EF21F0060116A995
:1042F0007CEF21F07EEF21F089EF21F0180E05010F
:10430000EC25D96E060EED21DA6E2E0EDF6EEC4B2B
:10431000ED2B180E0501EC25D96E060EED21DA6E97
:10432000000EDF6E650EDA19D8A499EF21F09BEF2D
:1043300021F061EF22F0000EE56F4F0EE46F180ED2
:10434000E425D96E060EE521DA6E000EDF6E000E52
:10435000D56F000ED46FEBBFB2EF21F0B0EF21F0BC
:10436000BAEF21F0000ED56F010ED46FEA6DEB1F8E
:10437000D8B0EB2B000ED76F020ED66FECEF21F00A
:10438000E407D8A0E507180EE425D96E060EE5214E
:10439000DA6EEAC560F5EBC561F5000E636F0A0ED3
:1043A000626FD4EC38F005016051300FDF6EEAC562
:1043B00060F5EBC561F5000E636F0A0E626F52EC9B
:1043C00037F060C5EAF561C5EBF50501D607D8A061
:1043D000D707D807D8A0D907EA51EB11D8A4F3EF33
:1043E00021F0F5EF21F0C0EF21F0D7BF02EF22F06E
:1043F000D75106E1D605D8B000EF22F002EF22F047
:10440000C0EF21F0E407D8A0E507D451D511D8A416
:104410000CEF22F00EEF22F014EF22F0000EC36F2B
:104420002B0EC26F18EF22F0000EC36F2D0EC26F5D
:10443000180EE425D96E060EE521DA6E610008F744
:10444000DFF4D807D8A0D907E407D8A0E507BF0E46
:10445000BB6FFF0EBC6FBA51BD6FBE6BBB51BD27AA
:10446000BC51BE23BE5109E11A0EBD5DD8A03BEF81
:1044700022F03DEF22F043EF22F0000EC56F650EF3
:10448000C46F47EF22F0000EC56F450EC46F180EC3
:10449000E425D96E060EE521DA6E610010F7DFF42F
:1044A000D807D8A0D907180EEC25606F060EED21AD
:1044B000616F180EE425626F060EE521636F75ECDF
:1044C0003BF0B4C572F5B5C573F5180E0501746FF0
:1044D000060E756FD8C576F5D9C577F587EC36F039
:1044E00072C5B4F573C5B5F512006100D0F7D9F403
:1044F0006100D4F7DAF4DEC4F6F4DDC4F7F4000E9C
:10450000F86E0800F550250AD8A489EF22F08BEF49
:1045100022F0C5EF24F06100D0F7D9F46100D4F7A0
:10452000DAF4DE2A000EDD22000E0601136F000E03
:10453000126F12C616F613C617F6146915696100D4
:10454000D0F7D9F46100D4F7DAF4DEC4F6F4DDC4B0
:10455000F7F4000EF86E0800F5500501666F676B02
:1045600010EC3DF0050166510601946F9451D8B4EA
:10457000BCEF22F0BEEF22F00CEF23F06100D0F789
:10458000D9F46100D4F7DAF4610078F3F8F561004A
:1045900074F3F9F5010E0501F827000EF923610007
:1045A000E0F7F6F46100E4F7F7F4000EF86E0800A7
:1045B000F550666F676B10EC3DF005016651060122
:1045C000956F9551D8B4E7EF22F0E9EF22F00CEFA8
:1045D00023F06100D0F7D9F46100D4F7DAF4610078
:1045E00078F3F8F5610074F3F9F5020E0501F82788
:1045F000000EF9236100E0F7F6F46100E4F7F7F448
:10460000000EF86E0800F550666F676B10EC3DF019
:10461000050166510601966F660E9419D8A413EF32
:1046200023F015EF23F066EF23F06100D0F7D9F403
:104630006100D4F7DAF4DEC4F6F4DDC4F7F4000E5A
:10464000F86E08006100D4F397F66100D0F7D9F452
:104650006100D4F7DAF4DE2A000EDD226100D8F71B
:10466000D9F46100DCF7DAF461007CF3F8F5040EAC
:10467000DE2661007CF3F9F5000EDD226100E0F733
:10468000D9F46100E4F7DAF4610078F390F66100A0
:1046900078F391F6610078F392F6610078F393F67F
:1046A000F2C5B4F5F3C5B5F590C6B6F591C6B7F544
:1046B00092C6B8F593C6B9F597C6BAF536EC1CF0B4
:1046C000B4C5F2F5B5C5F3F5E7EF24F0940E050196
:1046D000606F060E616F680E626F380E636F000EBA
:1046E000656F020E646F38EC34F0050160516111A2
:1046F000D8A47DEF23F07FEF23F024EF24F06100B6
:10470000D0F7D9F46100D4F7DAF4610078F3F8F562
:10471000610074F3F9F5010EF827000EF92361002A
:10472000E0F7F6F46100E4F7F7F4000EF86E080025
:104730006100D4F397F6BF0EF86FFF0EF96F6100BA
:10474000D0F7D9F46100D4F7DAF4DEC4F6F4DDC4AE
:10475000F7F4000EF86E0800F550FA6FFB6BF85195
:10476000FA27F951FB23FB5107E11A0EFA5DD8B085
:10477000BCEF23F0BEEF23F0E2EF23F06100D8F7A7
:10478000D9F46100DCF7DAF461007CF3F8F5040E8B
:10479000DE2661007CF3F9F5000EDD226100E0F712
:1047A000D9F46100E4F7DAF4610078F390F661007F
:1047B00078F391F6610078F392F6610078F393F65E
:1047C00004EF24F06100D8F7D9F46100DCF7DAF4E3
:1047D00061007CF3F8F5040EDE2661007CF3F9F548
:1047E000000EDD226100E0F7D9F46100E4F7DAF4AD
:1047F000610078F390F6610078F391F6610078F348
:1048000092F6610078F393F6020E6100D0F7D9F4C6
:104810006100D4F7DAF4DE26000EDD22F2C5B4F52D
:10482000F3C5B5F590C6B6F591C6B7F592C6B8F51D
:1048300093C6B9F597C6BAF536EC1CF0B4C5F2F5D7
:10484000B5C5F3F5E7EF24F06100D0F7D9F46100C6
:10485000D4F7DAF4DEC4F6F4DDC4F7F4000EF86E33
:104860000800F550750AD8A438EF24F03AEF24F088
:1048700086EF24F06100D0F7D9F46100D4F7DAF4C0
:10488000DE2A000EDD226100D8F7D9F46100DCF7E2
:10489000DAF461007CF3F8F5020EDE2661007CF3A9
:1048A000F9F5000EDD226100E0F7D9F46100E4F7CC
:1048B000DAF4610078F3FAF5610074F3FBF5FAC5F8
:1048C00088F6FBC589F606018A6B8B6B8C6B8D6B4A
:1048D0008E6B8F6BF2C57DF5F3C57EF588C67FF5CF
:1048E00089C680F58AC681F58BC682F58CC683F5AC
:1048F0008DC684F58EC685F58FC686F53AEC30F008
:104900007DC5F2F57EC5F3F5E7EF24F06100D0F741
:10491000D9F46100D4F7DAF4DEC4F6F4DDC4F7F4B8
:10492000000EF86E0800F550250AD8A49AEF24F07E
:104930009CEF24F0B6EF24F06100D0F7D9F46100C9
:10494000D4F7DAF4DE2A000EDD22000E636F250EA6
:10495000626FF2C564F5F3C565F5D1EC39F0000E70
:104960000501F36F010EF26FE7EF24F06100D0F75D
:10497000D9F46100D4F7DAF4DE2A000EDD22000E4D
:10498000F36F000EF26FE7EF24F06100D0F7D9F477
:104990006100D4F7DAF4DEC4F6F4DDC4F7F4000EF7
:1049A000F86E0800F5500501626F636BF2C564F59F
:1049B000F3C565F5D1EC39F06100D0F7D9F46100A9
:1049C000D4F7DAF4DE2A000EDD22AFEF24F0120075
:1049D00005016351800B6C6F635163256E6F62AF8D
:1049E000F4EF24F0F6EF24F0F7EF24F06E816E512F
:1049F000D8B4FDEF24F0FFEF24F014EF25F06E297A
:104A0000D8A405EF25F007EF25F00FEF25F0000EF5
:104A1000606F000E616F000E626F000E636F628F39
:104A2000000E636F1CEF25F0000E606F000E616FCB
:104A3000000E626F000E636F6751800B6D6F6C51DB
:104A40006D19D8B426EF25F028EF25F029EF25F0D1
:104A50006C8D675167256D6F66AF31EF25F033EFD1
:104A600025F034EF25F06D816D51D8B43AEF25F083
:104A70003CEF25F051EF25F06D29D8A442EF25F049
:104A800044EF25F04CEF25F0000E646F000E656FCB
:104A9000000E666F000E676F668F000E676F59EF2E
:104AA00025F0000E646F000E656F000E666F000E3D
:104AB000676F6E516D5DD8B060EF25F062EF25F045
:104AC00089EF25F06CAD67EF25F069EF25F06BEF0E
:104AD00025F0800E6C1B6EC56FF56DC56EF56FC54C
:104AE0006DF560C56FF564C560F56FC564F561C5AA
:104AF0006FF565C561F56FC565F562C56FF566C58E
:104B000062F56FC566F563C56FF567C563F56FC57B
:104B100067F5000E6F6F6E516DC568F5696B685F64
:104B2000000E695B69BF9EEF25F0695109E11A0E1D
:104B3000685DD8A09EEF25F0A0EF25F0D7EF25F017
:104B40006051611162116311D8A4A9EF25F0ACEF97
:104B500025F0010EADEF25F0000E6F6F000E606FB7
:104B6000000E616F000E626F000E636F6DC56EF513
:104B7000E0EF25F06FA1BFEF25F0C1EF25F0C7EF03
:104B800025F0D8906F3101096F6FC9EF25F0D890EB
:104B90006F3360A1CEEF25F0D0EF25F0D1EF25F0F7
:104BA0006F8F633563336233613360336E2B6D51C6
:104BB0006E5DD8A0DEEF25F0E0EF25F0BAEF25F02E
:104BC0006CBDE5EF25F0E7EF25F027EF26F06E51FD
:104BD000D8A4EDEF25F0EFEF25F0F9EF25F0000E6A
:104BE000606F000E616F000E626F000E636F48EF22
:104BF00027F0645160276551612366516223675134
:104C0000632363A106EF26F008EF26F0B4EF26F049
:104C10006FA10DEF26F00FEF26F015EF26F0D890DC
:104C20006F3101096F6F17EF26F0D8906F3360A1D5
:104C30001CEF26F01EEF26F01FEF26F06F8F633576
:104C400063336233613360336E2BB4EF26F064510B
:104C5000605D65516159665162596351800A686FA0
:104C60006751800A6859D8B038EF26F03AEF26F03D
:104C700065EF26F06051645D686F61516559696F39
:104C8000625166596A6F635167596B6FFF0E6825F1
:104C9000606FFF0E6921616FFF0E6A21626FFF0E68
:104CA0006B21636F800E6C1B6F6D6F51D8A45BEF2F
:104CB00026F05DEF26F06DEF26F0010E6027000E66
:104CC0006123622363236DEF26F06451605F6551B9
:104CD000615B6651625B6751635B60516111621198
:104CE0006311D8A476EF26F078EF26F0ADEF26F02A
:104CF0006F51D8A47EEF26F080EF26F0ADEF26F0BE
:104D0000000E606F000E616F000E626F000E636F29
:104D100048EF27F0D89060376137623763376FAF5D
:104D200094EF26F096EF26F097EF26F060816FA1C2
:104D30009CEF26F09EEF26F0A2EF26F0D8806F378A
:104D4000A4EF26F0D8906F376E51D8B4AAEF26F0B2
:104D5000ACEF26F0ADEF26F06E0762AFB2EF26F0B3
:104D6000B4EF26F08AEF26F0000E6D6F6FAFBBEF49
:104D700026F0BDEF26F0D5EF26F06FC568F57F0E63
:104D80006817D8B4C6EF26F0C8EF26F0CCEF26F0AF
:104D9000010E6D6FD5EF26F060A1D1EF26F0D3EFB5
:104DA00026F0D5EF26F0C8EF26F06D51D8B4DBEF32
:104DB00026F0DDEF26F008EF27F0010E6027000E49
:104DC00061236223632363A1E8EF26F0EAEF26F074
:104DD00008EF27F060C568F561C569F562C56AF539
:104DE00063C56BF56B356B336A336933683368C5FC
:104DF00060F569C561F56AC562F56BC563F56E2935
:104E0000D8B405EF27F007EF27F008EF27F06E2B57
:104E10006E29D8B40EEF27F010EF27F018EF27F027
:104E20006E51D8A416EF27F018EF27F02AEF27F0DD
:104E3000000E606F000E616F000E626F000E636FF8
:104E40006E51D8A426EF27F028EF27F02AEF27F09D
:104E5000000E6C6F6EA12FEF27F031EF27F034EFCB
:104E600027F0628F35EF27F0629FD8906E31636F25
:104E70006CAF3DEF27F03FEF27F040EF27F0638F57
:104E800060C560F561C561F562C562F563C563F52E
:104E9000120005017151800B7A6F71517125806F7D
:104EA00070AF55EF27F057EF27F058EF27F08081CC
:104EB0008051D8B45EEF27F060EF27F073EF27F052
:104EC0008029D8A466EF27F068EF27F070EF27F06D
:104ED000000E6E6F000E6F6F000E706F000E716F20
:104EE000708F7BEF27F0000E6E6F000E6F6F000E5D
:104EF000706F000E716F7551800B7A1B755175259F
:104F00007F6F74AF86EF27F088EF27F089EF27F0E7
:104F10007F817F51D8B48FEF27F091EF27F0A4EF76
:104F200027F07F29D8A497EF27F099EF27F0A1EF7A
:104F300027F0000E726F000E736F000E746F000E7C
:104F4000756F748FACEF27F0000E726F000E736FE9
:104F5000000E746F000E756F7F51D8B4B2EF27F05A
:104F6000B4EF27F0BCEF27F08051D8A4BAEF27F0B8
:104F7000BCEF27F0C6EF27F0000E6E6F000E6F6FCC
:104F8000000E706F000E716F70EF29F074516E0398
:104F90006100CCF385F56100D0F386F585517B6F18
:104FA0007C6B7D6B7E6B8651816F826B836B846BB8
:104FB00073516F036100CCF385F56100D0F386F582
:104FC00085517B27000E7C237D237E2386518127FC
:104FD000000E822383238423725170036100CCF37B
:104FE00085F56100D0F386F585517B27000E7C2383
:104FF0007D237E2386518127000E822383238423F1
:105000007DC57EF57CC57DF57BC57CF57B6B7251DE
:105010006F036100CCF385F56100D0F386F585510F
:105020007B2786517C23000E7D23000E7E23735147
:105030006E036100CCF385F56100D0F386F58551F0
:105040007B2786517C23000E7D23000E7E237DC5A9
:105050007EF57CC57DF57BC57CF57B6B72516E035F
:105060006100CCF385F56100D0F386F585517B278F
:1050700086517C23000E7D23000E7E2374516F0326
:105080006100CCF385F56100D0F386F58551812769
:1050900086518223000E8323000E842373517003F4
:1050A0006100CCF385F56100D0F386F58551812749
:1050B00086518223000E8323000E842374517003D3
:1050C0006100CCF385F56100D0F386F58551766FEC
:1050D0008651776F786B796B78C579F577C578F5F8
:1050E00076C577F5766B7651812777518223785193
:1050F0008323795184237BC576F57CC577F57DC5FF
:1051000078F57EC579F5190E8BEF28F0D8907933B4
:10511000783377337633E82E86EF28F0765181277F
:105120007751822378518323795184237DC57EF57D
:105130007CC57DF57BC57CF57B6B7F5180C576F5A5
:10514000776B7627000E7723820E7625856FFF0E0C
:105150007721866FC1EF28F0D89081378237833767
:1051600084377EAFB6EF28F0B8EF28F0B9EF28F01B
:105170008181D8907B377C377D377E378507D8A0F3
:10518000860783AFC6EF28F0C8EF28F0ACEF28F011
:10519000000E7F6F7EAFCFEF28F0D1EF28F0F5EF54
:1051A00028F0FF0E7B15766FFF0E7C15776FFF0ED4
:1051B0007D15786F7F0E7E15796F76517711781196
:1051C0007911D8B4E6EF28F0E8EF28F0ECEF28F0FA
:1051D000010E7F6FF5EF28F081A1F1EF28F0F3EFDA
:1051E00028F0F5EF28F0E8EF28F07F51D8B4FBEF76
:1051F00028F0FDEF28F021EF29F0010E8127000EA5
:1052000082238323842384A108EF29F00AEF29F065
:1052100021EF29F081C576F582C577F583C578F54C
:1052200084C579F57935793378337733763376C534
:1052300081F577C582F578C583F579C584F5854B09
:10524000862B86BF2CEF29F0865108E18529D8A04E
:105250002CEF29F02EEF29F038EF29F0000E816FA6
:10526000000E826F800E836F7F0E846F66EF29F0D1
:1052700086BF45EF29F0865106E18505D8B043EF9A
:1052800029F045EF29F051EF29F0000E816F000E53
:10529000826F000E836F000E846F000E7A6F66EFD0
:1052A00029F085C580F5FF0E8117FF0E82177F0E4E
:1052B0008317000E841780A160EF29F062EF29F0B8
:1052C00063EF29F0838FD8908031846F7A518413F3
:1052D00081C56EF582C56FF583C570F584C571F51E
:1052E000120005018A51800B976F8A518A259E6FA3
:1052F00089AF7DEF29F07FEF29F080EF29F09E81C3
:105300009E51D8B486EF29F088EF29F09DEF29F05F
:105310009E29D8A48EEF29F090EF29F098EF29F07C
:10532000000E876F000E886F000E896F000E8A6F67
:10533000898F000E8A6FA5EF29F0000E876F000E8F
:10534000886F000E896F000E8A6F8E51800B971B3D
:105350008E518E259F6F8DAFB0EF29F0B2EF29F0FF
:10536000B3EF29F09F819F51D8B4B9EF29F0BBEF7B
:1053700029F0D0EF29F09F29D8A4C1EF29F0C3EF7D
:1053800029F0CBEF29F0000E8B6F000E8C6F000E12
:105390008D6F000E8E6F8D8F000E8E6FD8EF29F0FF
:1053A000000E8B6F000E8C6F000E8D6F000E8E6FD7
:1053B0008B518C118D118E11D8A4E1EF29F0E3EF00
:1053C00029F0FBEF29F0000E876F000E886F000EAA
:1053D000896F000E8A6F800E89137F0E8A13975192
:1053E0008A1387C587F588C588F589C589F58AC573
:1053F0008AF53EEF2BF09E51D8A401EF2AF003EF7F
:105400002AF00DEF2AF0000E876F000E886F000E55
:10541000896F000E8A6F3EEF2BF09F519EC58FF56E
:10542000906B8F5F000E905B7F0E8F25986F000E44
:105430009021996F87C593F588C594F589C595F531
:105440008AC596F5000E876F000E886F000E896F73
:10545000000E8A6F000E9A6F000E9B6F000E9C6FFD
:10546000000E9D6F000E9F6F6EEF2AF09F51D8B413
:105470003CEF2AF03EEF2AF055EF2AF0D890933710
:10548000943795379637D8908737883789378A3752
:105490009DAF4DEF2AF04FEF2AF050EF2AF08781B1
:1054A000D8909A379B379C379D378B51935D8C51A1
:1054B00094598D5195598E519659D8A062EF2AF082
:1054C00064EF2AF06DEF2AF09D8D8B51935F8C5124
:1054D000945B8D51955B8E51965B9F2B190E9F654A
:1054E00074EF2AF076EF2AF036EF2AF093519411F8
:1054F00095119611D8B47FEF2AF081EF2AF099EF39
:105500002AF09A8199EF2AF0D8908737883789371F
:105510008A379DAF8EEF2AF090EF2AF091EF2AF0B4
:105520008781D8909A379B379C379D379807D8A0AA
:10553000990789AF9EEF2AF0A0EF2AF084EF2AF0B6
:10554000000E9F6F9DAFA7EF2AF0A9EF2AF0CDEFD5
:105550002AF0FF0E9A158F6FFF0E9B15906FFF0EAE
:105560009C15916F7F0E9D15926F8F519011911127
:105570009211D8B4BEEF2AF0C0EF2AF0C4EF2AF09F
:10558000010E9F6FCDEF2AF087A1C9EF2AF0CBEF74
:105590002AF0CDEF2AF0C0EF2AF09F51D8B4D3EF14
:1055A0002AF0D5EF2AF0F9EF2AF0010E8727000E36
:1055B000882389238A238AA1E0EF2AF0E2EF2AF0E8
:1055C000F9EF2AF087C58FF588C590F589C591F563
:1055D0008AC592F592359233913390338F338FC5CC
:1055E00087F590C588F591C589F592C58AF5984BE0
:1055F000992B99BF04EF2BF0995108E19829D8A075
:1056000004EF2BF006EF2BF011EF2BF0000E996F4B
:105610009869000E876F000E886F000E896F000E6C
:105620008A6F99BF1EEF2BF0995106E19805D8B00B
:105630001CEF2BF01EEF2BF02CEF2BF0000E996FD0
:10564000000E986F000E876F000E886F000E896F36
:10565000000E8A6F000E976F98C59EF59EA133EFDE
:105660002BF035EF2BF038EF2BF0898F39EF2BF043
:10567000899FD8909E318A6FEFEF29F0120047047E
:105680004610D8A446EF2BF048EF2BF050EF2BF04C
:10569000000E476E000E466E000E5E6E000E5D6ED2
:1056A000000E0501AF6F000EAE6F3CC587F53DC51E
:1056B00088F53EC589F53FC58AF5C40EA46F060E70
:1056C000A56FD8904634D96E4734DA6ED890D93663
:1056D000DA36A451D926A551DA22610078F38BF588
:1056E000610078F38CF5610078F38DF5610078F353
:1056F0008EF558EC3DF087C53CF588C53DF589C56C
:105700003EF58AC53FF548C560F549C561F5050117
:10571000626B636B000E42EC31F0C40E0501A46FA6
:10572000060EA56FD8904634D96E4734DA6ED890FD
:10573000D936DA36A451D926A551DA22610080F58E
:10574000DEF4610084F5DEF4610088F5DEF46100CA
:105750008CF5DEF43CC560F53DC561F53EC562F5EE
:105760003FC563F5C40EA46F060EA56FD8904634EE
:10577000D96E4734DA6ED890D936DA36A451D926A4
:10578000A551DA22610078F364F5610078F365F5DC
:10579000610078F366F5610078F367F5E8EC24F0D2
:1057A00060C53CF561C53DF562C53EF563C53FF595
:1057B000464A472A0501AE4BAF2BAFBFE9EF2BF0AE
:1057C000AF5109E1100EAE5DD8A0E9EF2BF0EBEF81
:1057D0002BF055EF2BF05D505E10D8B4F2EF2BF0AC
:1057E000F4EF2BF077EF2CF046C560F547C561F577
:1057F000000E61BFFF0E626F636F010E42EC31F06D
:1058000060C58BF561C58CF562C58DF563C58EF5F8
:10581000000E0501726F000E736F800E746F400EE4
:10582000756F3CC56EF53DC56FF53EC570F53FC55E
:1058300071F549EC27F06EC587F56FC588F570C521
:1058400089F571C58AF571EC29F087C5A6F588C57B
:10585000A7F589C5A8F58AC5A9F5000E0501726FDF
:10586000800E736FAB0E746F430E756F000E8B6FEF
:10587000000E8C6F000E8D6F400E8E6FA6C587F5E3
:10588000A7C588F5A8C589F5A9C58AF571EC29F0E1
:1058900087C56EF588C56FF589C570F58AC571F540
:1058A00049EC27F06EC5AAF56FC5ABF570C5ACF530
:1058B00071C5ADF5AAC587F5ABC588F5ACC589F549
:1058C000ADC58AF5000E05018B6F300E8C6FF20EA0
:1058D0008D6F460E8E6F71EC29F087C5A0F588C5D7
:1058E000A1F589C5A2F58AC5A3F5EBEF2CF0000E52
:1058F0008B6F000E8C6F800E8D6F430E8E6F000EBF
:10590000726F000E736F800E746F400E756F3CC522
:105910006EF53DC56FF53EC570F53FC571F549ECB7
:1059200027F06EC587F56FC588F570C589F571C517
:105930008AF571EC29F087C5A6F588C5A7F589C554
:10594000A8F58AC5A9F5000E0501726F800E736F68
:10595000AB0E746F430E756F000E8B6F000E8C6F65
:10596000000E8D6F400E8E6FA6C587F5A7C588F512
:10597000A8C589F5A9C58AF571EC29F087C56EF52A
:1059800088C56FF589C570F58AC571F549EC27F0B2
:105990006EC5AAF56FC5ABF570C5ACF571C5ADF5B3
:1059A000AAC587F5ABC588F5ACC589F5ADC58AF53F
:1059B000000E05018B6F300E8C6FF20E8D6F460E50
:1059C0008E6F71EC29F087C5A0F588C5A1F589C552
:1059D000A2F58AC5A3F51200610038F4D9F461007C
:1059E0003CF4DAF4610078F313F5610078F314F510
:1059F000610078F315F5610078F316F520EE04F0F8
:105A00000E50D9260F50DA22DFA009EF2DF00BEF50
:105A10002DF045EF2DF020EE01F00C50D9260D5061
:105A2000DA221338E842F80BF80BDF6E050E106E21
:105A3000D8901632153214321332102E18EF2DF082
:105A400020EE02F00C50D9260D50DA2261004CF401
:105A5000DFF414C513F515C514F516C515F5166A4A
:105A600020EE03F00C50D9260D50DA2213501F0BF4
:105A7000DF6E050E106ED8901632153214321332C6
:105A8000102E3BEF2DF05DEF2DF020EE03F00C50CB
:105A9000D9260D50DA22000EDF6E10EE02F00C5007
:105AA000E1260D50E222DFC4E7F420EE01F00C50B5
:105AB000D9260D50DA22E7C4DFF4610030F4D9F4BE
:105AC000610034F4DAF461004CF4DFF414C513F52A
:105AD00015C514F516C515F5166A13C510F5070E8C
:105AE000101620EE01F00C50D9260D50DA2210507D
:105AF000DF1220EE04F00E50D9260F50DA22DF30EC
:105B0000E8320F0B126E20EE04F00E50D9260F5023
:105B1000DA22DFB08EEF2DF092EF2DF0106A102A0E
:105B200093EF2DF0106A1038F00B121220EE04F0F3
:105B30000E50D9260F50DA22DFB2A1EF2DF0A5EFDB
:105B40002DF0200E106EA6EF2DF0106A10501212DC
:105B500020EE04F00E50D9260F50DA22DFBEB3EF4C
:105B60002DF0B7EF2DF0400E106EB8EF2DF0106A4B
:105B70001050121220EE04F00E50D9260F50DA22E7
:105B8000DFBCC5EF2DF0C9EF2DF0800E106ECAEF0F
:105B90002DF0106A1050121220EE04F00C50D9268D
:105BA0000D50DA22610048F4DFF420EE04F00E50CC
:105BB000D9260F50DA22DFB2E0EF2DF0E2EF2DF020
:105BC0000EEF2EF0080E0C24016E000E0D20026E5A
:105BD00020EE05F00E50D9260F50DA22610078F33E
:105BE00003F5610074F304F520EE04F00E50D9269D
:105BF0000F50DA22DF30E8320F0B106E116A010EFF
:105C00001024F66E380E1120F76EF86A000EF82296
:105C10000800F550056E066A3DEC3CF0120020EEDF
:105C200004F00C50D9260D50DA22DF50166E16C53E
:105C300010F520EE04F00E50D9260F50DA2210464F
:105C40001046DF501018C30B1018DF6E16B82BEF7C
:105C50002EF02FEF2EF0106A102A30EF2EF0106A7F
:105C600020EE04F00E50D9260F50DA22DF50101823
:105C7000FE0B1018DF6E16BA40EF2EF044EF2EF038
:105C8000106A102A45EF2EF0106A20EE04F00E5034
:105C9000D9260F50DA221046DF501018FD0B1018CD
:105CA000DF6E16BC56EF2EF05AEF2EF0106A102A57
:105CB0005BEF2EF0106A20EE04F00E50D9260F5044
:105CC000DA2210321032DF5010187F0B1018DF6EFE
:105CD00016BE6DEF2EF071EF2EF0106A102A72EFE3
:105CE0002EF0106A20EE04F00E50D9260F50DA2262
:105CF000103A10461046DF501018BF0B1018DF6E18
:105D000020EE01F00C50D9260D50DA22DF50106E33
:105D1000070E10161050126E136A146A156A14C515
:105D200015F513C514F512C513F5126A610030F4A8
:105D3000D9F4610034F4DAF4DF50106E105012120E
:105D400020EE04F00E50D9260F50DA22DFA0ABEF80
:105D50002EF0ADEF2EF0EEEF2EF0050ED8901236AD
:105D6000133614361536E82EAEEF2EF020EE03F083
:105D70000C50D9260D50DA22DF50106E1F0E10166F
:105D80001050121214C515F513C514F512C513F5EC
:105D9000126A20EE02F00C50D9260D50DA22DF50A4
:105DA000106E10501212050ED8901236133614369B
:105DB0001536E82ED4EF2EF020EE01F00C50D92647
:105DC0000D50DA22DF50106ED8901032D890103279
:105DD000D89010321F0E101610501212610038F4B5
:105DE000D9F461003CF4DAF4610048F4DEF46100B7
:105DF0004CF4DEF4610050F4DEF4610054F4DEF49F
:105E0000680E016E060E026E080E0C24036E000E64
:105E10000D20046E20EE04F00E50D9260F50DA2229
:105E2000DF30E8320F0B106E116A010E1024F66E8F
:105E3000380E1120F76EF86A000EF8220800F550AF
:105E4000056E066A3DEC3CF020EE05F00E50D926BA
:105E50000F50DA22680EDE6E060EDD6E120034C5BB
:105E6000B0F535C5B1F536C5B2F537C5B3F5A0C542
:105E7000B0F5A1C5B1F5A2C5B2F5A3C5B3F5810EC4
:105E80000501A46FFF0EA56FB0C5A6F5B1C5A7F5B6
:105E9000B2C5A8F5B3C5A9F5180E54EF2FF0D890E8
:105EA000A933A833A733A633E82E4FEF2FF0A6511E
:105EB000A425AE6F000EA521AF6FAFBF69EF2FF025
:105EC000AF5109E1170EAE5DD8A069EF2FF06BEF6F
:105ED0002FF075EF2FF0A0C5A0F5A1C5A1F5A2C5C3
:105EE000A2F5A3C5A3F539EF30F0AFBF7AEF2FF0DD
:105EF0007CEF2FF0EDEF2FF0AEC5A4F5FF0EA56FF0
:105F0000FF0EA66F7F0EA76F000EA86FA4678BEF22
:105F10002FF093EF2FF0A835A833A733A633A5337E
:105F2000A42F86EF2FF0A5C5AAF5A6C5ABF5A7C58A
:105F3000ACF5A8C5ADF50501AA51B015A46FAB51DC
:105F4000B115A56FAC51B215A66FAD51B315A76FC2
:105F5000A451A511A611A711D8A4B1EF2FF0B3EF4A
:105F60002FF0B5EF2FF06BEF2FF0B0C5A4F5B1C552
:105F7000A5F5B2C5A6F5B3C5A7F5200EC5EF2FF060
:105F8000D890A733A633A533A433E82EC0EF2FF063
:105F9000A451A511A611A711D8B4D1EF2FF0D3EFBA
:105FA0002FF0DBEF2FF0AA51B027AB51B123AC514A
:105FB000B223AD51B323AA1DA46FAB1DA56FAC1DB9
:105FC000A66FAD1DA76FA451B017A551B117A6516B
:105FD000B217A751B31731EF30F0B0C5A4F5B1C572
:105FE000A5F5B2C5A6F5B3C5A7F5200EFDEF2FF0B8
:105FF000D890A733A633A533A433E82EF8EF2FF0BB
:10600000A451A511A611A711D8A409EF30F00BEFE8
:1060100030F015EF30F0000EB06F000EB16F000ED3
:10602000B26F000EB36F31EF30F0D890B035A46F7F
:10603000B135A56FB235A66FB335A76FA451A511C1
:10604000A611A711D8B427EF30F029EF30F031EFC7
:1060500030F0000EB06F000EB16F800EB26FBF0E49
:10606000B36FB0C5A0F5B1C5A1F5B2C5A2F5B3C572
:10607000A3F51200060115BF40EF30F042EF30F0FB
:1060800043EF30F0169315BF50EF30F0155106E195
:106090001405D8B04EEF30F050EF30F057EF30F03D
:1060A000000E0501906F010E8F6F5BEF30F014C68C
:1060B0008FF515C690F512C691F513C692F57FC5FA
:1060C00093F580C594F581C595F582C596F583C590
:1060D00097F584C598F585C599F586C59AF5000E9E
:1060E00005019C6F4F0E9B6F000E0601676FF1EF6D
:1060F00030F005019B07D8A09C07180E9B25D96E90
:10610000060E9C21DA6E93C560F594C561F595C5C0
:1061100062F596C563F597C564F598C565F599C5AB
:1061200066F59AC567F50A0E686F000E696F000E76
:106130006A6F000E6B6F000E6C6F000E6D6F000EBD
:106140006E6F000E6F6F1EEC36F060C587F561C58F
:1061500088F562C589F563C58AF564C58BF565C5A3
:106160008CF566C58DF567C58EF505018751300F35
:10617000DF6E8F07D8A090079107D8A0920793C52C
:1061800060F594C561F595C562F596C563F597C54B
:1061900064F598C565F599C566F59AC567F50A0E63
:1061A000686F000E696F000E6A6F000E6B6F000E55
:1061B0006C6F000E6D6F000E6E6F000E6F6FB6ECA1
:1061C00034F060C593F561C594F562C595F563C576
:1061D00096F564C597F565C598F566C599F567C5E3
:1061E0009AF505019B519C11D8B4F9EF30F0FBEF03
:1061F00030F02CEF31F093519411951196119711C5
:10620000981199119A11D8A408EF31F00AEF31F0E2
:1062100079EF30F090BF17EF31F0905106E18F0524
:10622000D8B015EF31F017EF31F079EF30F092BFC1
:1062300022EF31F0925108E19105D8A022EF31F020
:1062400024EF31F02CEF31F0060116B32AEF31F0D4
:106250002CEF31F079EF30F07DC572F57EC573F526
:10626000180E05019B25746F060E9C21756F91C554
:1062700076F592C577F587EC36F072C57DF573C576
:106280007EF512000501686F05016851D8B44BEF27
:1062900031F04DEF31F06FEF31F063BF54EF31F07B
:1062A00052EF31F06FEF31F060C564F561C565F50F
:1062B00062C566F563C567F5641F651F661F671FC6
:1062C000642B000E65236623672364C56AF565C5E4
:1062D0006BF566C56CF567C56DF577EF31F060C598
:1062E0006AF561C56BF562C56CF563C56DF5605106
:1062F000611162116311D8A480EF31F082EF31F0A7
:106300008CEF31F0000E606F000E616F000E626F57
:10631000000E636F1DEF32F0960E696F96EF31F04D
:10632000692BD8906D336C336B336A33000E6A156A
:10633000646F000E6B15656F000E6C15666FFE0EB8
:106340006D15676F6451651166116711D8A4ABEFC5
:1063500031F0ADEF31F090EF31F0BBEF31F0692B60
:10636000010E6A27000E6B236C236D23D8906D33CA
:106370006C336B336A33000E6A15646F000E6B1555
:10638000656F000E6C15666FFF0E6D15676F6451BB
:10639000651166116711D8A4D0EF31F0D2EF31F05A
:1063A000AFEF31F0DAEF31F06907D8906A376B3729
:1063B0006C376D376CBFDFEF31F0E1EF31F0E9EFB3
:1063C00031F0020E6961E7EF31F0E9EF31F0D4EF1F
:1063D00031F069B1EEEF31F0F0EF31F0F1EF31F083
:1063E0006C9FD890693369C564F5656B666B676BA4
:1063F00064C567F5666B656B646B64516A136551C0
:106400006B1366516C1367516D136851D8B40BEF61
:1064100032F00DEF32F015EF32F063BF14EF32F0CF
:1064200012EF32F015EF32F06D8F6AC560F56BC573
:1064300061F56CC562F56DC563F512000A6E000E5C
:106440000B6E20EE04F00250D9260350DA22DF5002
:106450000C6E0A500C0D530EF324D96E010EF4206D
:10646000DA6EDF50046E050E056ED8900432052EEC
:1064700035EF32F00450070B096E0CAE42EF32F0EC
:1064800044EF32F057EF32F0010101B94AEF32F038
:106490004CEF32F056EF32F03DEC40F0060AD8A453
:1064A00054EF32F056EF32F057EF32F00B820C30EF
:1064B000E8320F0B046E080E046461EF32F063EFF4
:1064C00032F075EF32F00CAC68EF32F06AEF32F078
:1064D00074EF32F03DEC40F0060AD8A472EF32F0CF
:1064E00074EF32F075EF32F00B800950046E056ADC
:1064F000080E0426000E0522010E0424F66E380E46
:106500000520F76EF86A000EF82208006100D4F347
:1065100006F50C30E8320F0B076E086A010E0724EF
:10652000F66E380E0820F76EF86A000EF8220800A2
:10653000F550065CD8B09FEF32F0A1EF32F0A2EF39
:1065400032F00B800A50B9EC3FF00009D8A4ABEF51
:1065500032F0ADEF32F0AFEF32F0030E0B120B5012
:106560001200050162356335696F6951D8A4BBEF2C
:1065700032F0BDEF32F0C7EF32F0000E606F000E68
:10658000616F000E626F000E636F34EF33F060C511
:1065900064F561C565F562C566F563C567F5200EEE
:1065A000D7EF32F0D8906733663365336433E82E23
:1065B000D2EF32F06451686F628FFF0E6017FF0EEA
:1065C0006117FF0E6217000E6317960E695F69BFB1
:1065D000EEEF32F0ECEF32F004EF33F06951800A65
:1065E000970FD8B0F6EF32F0F8EF32F0FAEF32F062
:1065F000BDEF32F0D8906333623361336033693F6B
:10660000FAEF32F01CEF33F01F0E69650AEF33F03A
:106610000CEF33F014EF33F0BDEF32F0D890603769
:1066200061376237633769076951D8A41AEF33F0CD
:106630001CEF33F00EEF33F06851D8B422EF33F093
:1066400024EF33F02CEF33F0631F621F611F606D86
:10665000000E61236223632360C560F561C561F5A7
:1066600062C562F563C563F51200000E050187156A
:106670008F6F000E8815906F800E8915916F7F0EB9
:106680008A15926F8F51901191119211D8A44BEFEE
:1066900033F04DEF33F055EF33F0000E876F000EFF
:1066A000886F000E896F000E8A6F000E8B158F6F3A
:1066B000000E8C15906F800E8D15916F7F0E8E15CC
:1066C000926F8F51901191119211D8A46AEF33F00B
:1066D0006CEF33F074EF33F0000E8B6F000E8C6FA5
:1066E000000E8D6F000E8E6F8AAF79EF33F07BEF67
:1066F00033F084EF33F0876D881FD8B0882B891F63
:10670000D8B0892B800E8A578EAF89EF33F08BEF8C
:1067100033F094EF33F08B6D8C1FD8B08C2B8D1F22
:10672000D8B08D2B800E8E57000E871B000E881B55
:10673000000E891B800E8A1B000E8B1B000E8C1B0B
:10674000000E8D1B800E8E1B8B51875D8C518859DE
:106750008D5189598E518A59D8B0B1EF33F0B3EFCA
:1067600033F0B6EF33F0D890B7EF33F0D8801200A3
:1067700038C56AF539C56BF53AC56CF53BC56DF59D
:1067800060C56AF561C56BF562C56CF563C56DF5ED
:106790006AC564F56BC565F56CC566F56DC567F5CD
:1067A000180ED9EF33F00501D8906733663365339F
:1067B0006433E82ED3EF33F06451686F696B68512E
:1067C0006911D8A4E6EF33F0E8EF33F008EF34F0C6
:1067D000D8906A35646F6B35656F6C35666F6D3553
:1067E000676F6451651166116711D8A4FAEF33F031
:1067F000FCEF33F002EF34F0000E616F020E606FB9
:1068000037EF34F0000E616F030E606F37EF34F036
:1068100068296911D8A40FEF34F011EF34F033EF89
:1068200034F06AC564F56BC565F56CC566F56DC574
:1068300067F5090ED8906437653766376737E82EF5
:106840001AEF34F06451651166116711D8B42BEF5B
:1068500034F02EEF34F0010E2FEF34F0000E606FA5
:10686000616B37EF34F0000E616F040E606F120041
:1068700060C567F561C568F562C569F563C56AF508
:1068800005016407D8A06507642906E16529D8A435
:106890004CEF34F04EEF34F05BEF34F0000E616FEC
:1068A000000E606FB5EF34F0674B682B694B6A2BB5
:1068B0006407D8A0650761009CF5D9F46100A0F5D4
:1068C000DAF4DF50D8B467EF34F069EF34F09EEFBC
:1068D00034F06100A4F5F6F46100A8F5F7F4000EB9
:1068E000F86E0800F5500009D8B479EF34F07BEF6A
:1068F00034F09EEF34F064516511D8B482EF34F077
:1069000084EF34F09EEF34F061009CF5D9F461001F
:10691000A0F5DAF4DF50666F6100A4F5F6F46100CB
:10692000A8F5F7F4000EF86E0800F5506619D8B413
:106930009CEF34F09EEF34F054EF34F061009CF59E
:10694000D9F46100A0F5DAF4DF50666F6100A4F5B8
:10695000F6F46100A8F5F7F4000EF86E0800F550A3
:10696000665D606F616BD8A06107120021EE70F167
:10697000070EDE6AE806FDE20501685169116A1139
:106980006B116C116D116E116F11D8B4CAEF34F028
:10699000CCEF34F01EEF35F0010E786FDAEF34F003
:1069A000D890683769376A376B376C376D376E3711
:1069B0006F37782B6FAFDFEF34F0E1EF34F0D0EFCB
:1069C00034F0D89070377137723773377437753742
:1069D000763777376851605D695161596A516259FC
:1069E0006B5163596C5164596D5165596E516659BB
:1069F0006F516759D8A0FFEF34F001EF35F012EF77
:106A000035F06851605F6951615B6A51625B6B513F
:106A1000635B6C51645B6D51655B6E51665B6F517E
:106A2000675B7081D8906F336E336D336C336B332B
:106A30006A3369336833782FE1EF34F070C560F55D
:106A400071C561F572C562F573C563F574C564F50A
:106A500075C565F576C566F577C567F51200610001
:106A6000E8F32EF56100ECF32FF56100D8F330F573
:106A70006100DCF331F56100E0F332F56100D4F33D
:106A800033F5A2A046EF35F048EF35F05FEF35F073
:106A9000B2A04DEF35F04FEF35F05FEF35F002D893
:106AA0005DEF35F00500FA6E0601C151FD6EC25171
:106AB000FE6EC351FF6EFA50120095EF35F0A1AE95
:106AC00064EF35F066EF35F071EF35F0B1AE6BEF96
:106AD00035F06DEF35F071EF35F06FEC3EF095EF7E
:106AE00035F0A2A876EF35F078EF35F083EF35F08A
:106AF000B2A87DEF35F07FEF35F083EF35F06AEC2B
:106B00003CF095EF35F09EAE88EF35F08AEF35F02A
:106B100095EF35F0AEAE8FEF35F091EF35F095EFA4
:106B200035F0F5EC3EF095EF35F06100CCF4F5F47E
:106B30006100C8F4F8F46100C4F4F7F46100C0F433
:106B4000F6F46100BCF4FBF46100B8F4FAF411004F
:106B5000206E000E1C6E1750ADEC3FF01F6E1FA094
:106B6000B4EF35F0B6EF35F01CEF36F017500C0DE2
:106B7000580EF324D96E010EF420DA6E610078F31A
:106B80001DF5610074F31EF51D501E10D8B4CBEF37
:106B900035F0CDEF35F01CEF36F01DC50CF51EC5F8
:106BA0000DF518C50EF519C50FF50FEC2EF01750A1
:106BB0000C0D510EF324D96E010EF420DA6E000E86
:106BC000DB802050020D5A0EF324D96E050EF420FE
:106BD000DA6EDF2A175085EC3FF01A6E2050020D56
:106BE0005A0EF324D96E050EF420DA6E1A50DE5CCC
:106BF000D8A0FDEF35F0FFEF35F009EF36F020506B
:106C0000020D5A0EF324D96E050EF420DA6E000E32
:106C1000DF6E1FA60EEF36F010EF36F01AEF36F0EB
:106C200017500C0D540EF324D96E010EF420DA6EB9
:106C3000F70EDF16010E1C6E1C5012000501685184
:106C400069116A116B116C116D116E116F11D8B44D
:106C50002CEF36F02EEF36F076EF36F0010E706F37
:106C60003CEF36F0D890683769376A376B376C3746
:106C70006D376E376F37702B6FAF41EF36F043EFE4
:106C800036F032EF36F06851605D695161596A51F2
:106C900062596B5163596C5164596D5165596E510C
:106CA00066596F516759D8A058EF36F05AEF36F051
:106CB0006AEF36F06851605F6951615B6A51625BEF
:106CC0006B51635B6C51645B6D51655B6E51665BD0
:106CD0006F51675BD8906F336E336D336C336B33AA
:106CE0006A3369336833702F43EF36F060C560F55F
:106CF00061C561F562C562F563C563F564C564F598
:106D000065C565F566C566F567C567F512000601D8
:106D100016A18DEF36F08FEF36F099EF36F074C58F
:106D20006BF575C56CF572C56DF573C56EF534EC14
:106D30003DF0050177BF9FEF36F0A1EF36F0A7EFEA
:106D400036F076C57BF577C57CF5ABEF36F0000EF7
:106D50007C6F000E7B6F000E7A6F000E796FBEEFB6
:106D600036F0000E636F200E626F72C564F573C556
:106D700065F5D1EC39F00501794B7A2B7B51795DC2
:106D80007A51800A786F7C51800A7859D8A0CBEF6D
:106D900036F0CDEF36F0B1EF36F0060116B1D3EF95
:106DA00036F0D5EF36F0DFEF36F074C56BF575C50C
:106DB0006CF572C56DF573C56EF534EC3DF074C5B8
:106DC00060F575C561F5C3EC3DF005017B516025AB
:106DD000726F7C516121736F1200000E036E000E02
:106DE0000A6E0A50020D590EF324D96E050EF420D6
:106DF000DA6EDF50066E0650ADEC3FF0056E05A072
:106E000004EF37F006EF37F047EF37F0065085EC28
:106E10003FF0076E05A60FEF37F011EF37F015EFD3
:106E200037F007C504F545EF37F006500C0D550E49
:106E3000F324D96E010EF420DA6EDF501F0B086EBA
:106E40000A50020D5A0EF324D96E050EF420DA6EA4
:106E5000DF50096E0950085CD8B031EF37F033EFDE
:106E600037F039EF37F00950085C0724046E45EF1E
:106E700037F00850095CD8B040EF37F042EF37F0F8
:106E800011EF37F00950085C046E045003260A2AFB
:106E9000010E0A644EEF37F050EF37F0F1EF36F0A5
:106EA00003501200000E0501656F63BF5CEF37F001
:106EB0005AEF37F062EF37F0626D631FD8B0632B83
:106EC000010E656F61BF69EF37F067EF37F06FEF65
:106ED00037F0606D611FD8B0612B010E651B000E8D
:106EE000676F000E666F62516311D8B47AEF37F0A6
:106EF0007CEF37F0A4EF37F0010E646F84EF37F0CA
:106F0000D89062376337642B63AF89EF37F08BEF2C
:106F100037F080EF37F0D890663767376251605DA1
:106F200063516159D8A097EF37F099EF37F09EEF92
:106F300037F06251605F6351615B6681D890633363
:106F40006233642F8BEF37F06551D8B4AAEF37F076
:106F5000ACEF37F0B0EF37F0666D671FD8B0672B36
:106F600066C560F567C561F51200000E4F24D96E45
:106F7000DA6A060EDA22000EDF6E0201B2A7C3EF54
:106F800037F0C5EF37F0DAEF37F0000E4F24D96E47
:106F9000DA6A060EDA220601DF8202D8DAEF37F06B
:106FA0000500FA6EBE51FD6EBF51FE6EC051FF6E00
:106FB000FA5012000201B2A3E0EF37F0E2EF37F02F
:106FC000F7EF37F0000E4F24D96EDA6A060EDA2298
:106FD0000601DF8402D8F7EF37F00500FA6EBB51E7
:106FE000FD6EBC51FE6EBD51FF6EFA501200000ED8
:106FF0004F24D96EDA6A060EDA22DF50D8B403EFD6
:1070000038F005EF38F015EF38F002D813EF38F00C
:107010000500FA6E0601B851FD6EB951FE6EBA5107
:10702000FF6EFA50120017EF38F0E0EC3EF012005D
:10703000000E066E04BE21EF38F01FEF38F027EF88
:1070400038F0036C041ED8B0042A010E066E02BE8E
:107050002EEF38F02CEF38F034EF38F0016C021ED0
:10706000D8B0022A010E061A000E086E000E076E36
:1070700003500410D8B43FEF38F041EF38F069EF17
:1070800038F0010E056E49EF38F0D890033604361B
:10709000052A04AE4EEF38F050EF38F045EF38F0E7
:1070A000D890073608360350015C04500258D8A027
:1070B0005CEF38F05EEF38F063EF38F00350015EBC
:1070C0000450025A0780D89004320332052E50EF44
:1070D00038F00650D8B46FEF38F071EF38F075EF34
:1070E00038F0076C081ED8B0082A07C501F508C596
:1070F00002F5120047EC3FF0D68E400E0501606F9E
:107100007B0E616F000E626F08EC40F0400E0501CF
:10711000606F7B0E616F000E626F0FEC40F0030E2C
:107120000601A76F8A0EA66F550EE82EFED7A62F72
:10713000FCD7A72FFAD700D0D7EC3FF058EC3FF0A0
:107140000009D8B4A6EF38F0A8EF38F08FEF38F088
:1071500067EC3FF00009D8B4B0EF38F0B2EF38F088
:10716000B9EF38F03F0E06019E6F380E9F6FCBECE3
:107170003EF0130E06019E6F380E9F6F3FEC2BF012
:10718000A0C5A0F6A1C5A1F6A2C5A2F6A3C5A3F607
:1071900024EC40F060C5A4F661C5A5F6CBEC3EF04A
:1071A0008FEF38F00DEF00F0000E0501656F61BF45
:1071B000DEEF38F0DCEF38F0E4EF38F0606D611F9F
:1071C000D8B0612B010E656F63BFEBEF38F0E9EFCC
:1071D00038F0EFEF38F0626D631FD8B0632B625167
:1071E0006311D8B4F6EF38F0F8EF38F01CEF39F04F
:1071F000010E646F00EF39F0D89062376337642B6B
:1072000063AF05EF39F007EF39F0FCEF38F062516A
:10721000605D63516159D8A010EF39F012EF39F079
:1072200016EF39F06251605F6351615BD890633350
:107230006233642F07EF39F06551D8B422EF39F08B
:1072400024EF39F028EF39F0606D611FD8B0612B61
:1072500060C560F561C561F51200000E050160159D
:10726000686F000E6115696F800E62156A6F7F0E80
:1072700063156B6F685169116A116B11D8A443EFE4
:1072800039F045EF39F04DEF39F0000E606F000E28
:10729000616F000E626F000E636F000E6415686F01
:1072A000000E6515696F800E66156A6F7F0E671593
:1072B0006B6F685169116A116B11D8A462EF39F0D4
:1072C00064EF39F06CEF39F0000E646F000E656FFB
:1072D000000E666F000E676F645160190FE1655113
:1072E00061190CE16651621909E167516319D8B45B
:1072F0007CEF39F07EEF39F081EF39F0D89082EFF2
:1073000039F0D8801200A2906A0E0501606F6F0EEE
:10731000616F000E626FE5EC3FF0000E0201A56F99
:10732000000EA66F000EA76F000EA86F000EA96FCB
:10733000000EAA6FA00EAB6F800EAC6F000EAD6F8B
:10734000440EAE6F000EAF6F000EB06F000EB16F47
:10735000000EB26F000EB36FB40E0501606F800EA9
:10736000616F000E626FF3EC3FF0B20E0501606FCB
:10737000800E616F000E626FECEC3FF08A0E05012B
:10738000606F800E616F000E626FFAEC3FF0000ECE
:107390004C6E000E4F6E000E4E6E000E4D6EA280B3
:1073A0001200050164516511D8B4D9EF39F0DBEF53
:1073B00039F0E4EF39F064516511D8A4E2EF39F007
:1073C000E4EF39F0E9EF39F06251DEEC3FF01CEF09
:1073D0003AF020EE09F06451D9266551DA22DE50E8
:1073E000DE10D8B4F6EF39F0F8EF39F013EF3AF0D9
:1073F00020EE09F06451D9266551DA2210EE03F02F
:107400006451E1266551E222DE50E65CE650800AD6
:107410006A6FDE50800A6A59D8B011EF3AF013EF64
:107420003AF01CEF3AF020EE03F06451D926655192
:10743000DA22DE2A000EDD2212000501626F000E44
:107440000501616F29EC40F00501606F040E6019C1
:10745000D8B42DEF3AF02FEF3AF040EF3AF0620552
:10746000D8B435EF3AF037EF3AF040EF3AF0040E87
:107470006219D8A43EEF3AF040EF3AF065EF3AF0E7
:107480000101035105016219F80B62190101036F33
:1074900057EF3AF001011DA950EF3AF052EF3AF0E0
:1074A00057EF3AF0020E0501616F67EF3AF00239CB
:1074B000E832070B05016219D8A461EF3AF063EFD7
:1074C0003AF04AEF3AF067EF3AF0010E616F61511E
:1074D00012001C6E1C50E2EC3DF00009D8B473EFB2
:1074E0003AF075EF3AF0B2EF3AF017C502F518C569
:1074F00003F51C501EEC32F0196E1950D8A483EF1E
:107500003AF085EF3AF0B2EF3AF01C500C0D580EFD
:10751000F324D96E010EF420DA6E610078F31AF5C7
:10752000610074F31BF51A501B10D8B49AEF3AF0AF
:107530009CEF3AF0B2EF3AF01AC50CF51BC50DF509
:1075400017C50EF518C50FF5ECEC2CF01C500C0D02
:10755000510EF324D96E010EF420DA6E030EDF1201
:10756000B2EF3AF01200000EBE6E000EBF6E000EBB
:10757000C06E080ECA6EC668FD0EC76EEE0EC86EEF
:10758000CC0E0401106FEC0E086FFE0E006F000EA3
:10759000216F000E096F000E016F000E116F000EBB
:1075A000026F000E0A6F000E126F03690B691369F8
:1075B00004690C691469080E246F1793179B1683CE
:1075C000168B1583158BB60E0501606F800E616FEB
:1075D000000E626F0FEC40F0B80E0501606F800E78
:1075E000616F000E626F08EC40F09E8E200E02016B
:1075F0000A6F080E726F12009E0EF66E7F0EF76E07
:10760000000EF86E01EEA8F210EE10F00900F5C4BD
:10761000EEF4E550E150FAE1840EF66E800EF76E5E
:10762000000EF86E01EE59F110EE06F00900F5C4F7
:10763000EEF4E550E150FAE101EEC4F211EE00F093
:10764000EE6AE550E150FCE1E250FAE101EE00F2B1
:10765000880EEE6AE806FDE101EE34F11C0EEE6ADA
:10766000E806FDE10401080E5D6F000E5E6F000E7E
:107670005F6F00017AEF38F09AC6FCF59BC6FDF506
:10768000000E0601116F000E106F5EEF3BF098C602
:10769000F2F599C6F3F5FC0E0501F46F050EF56FD2
:1076A0009CC6F6F59DC6F7F575EC22F00501F25182
:1076B000060110270501F351060111236100F0F7BF
:1076C000F6F46100F4F7F7F4000EF86E0800F550D8
:1076D0000009D8A46EEF3BF070EF3BF047EF3BF0B2
:1076E00010C698F611C699F6120062C566F563C514
:1076F00067F560C568F561C569F505016651646F98
:107700006751656F664B672B610090F5F6F4610079
:1077100094F5F7F4000EF86E6100A0F5D9F461005D
:10772000A4F5DAF4684B692B370EF76403D0080030
:10773000F55005D0F6C4E1F4F7C4E2F4E750DF6E8B
:10774000DF50D8A4A6EF3BF0A8EF3BF07DEF3BF075
:107750001200EDEC36F00009D8B4B1EF3BF0B3EF16
:107760003BF0A9EF3BF0270E216E050E226EBFEC19
:107770003CF0E806D8A4BFEF3BF0C1EF3BF0A9EF27
:107780003BF06100B0F4D9F46100B4F4DAF4DF50F6
:10779000256E2550016E026A000E046E200E036EE7
:1077A00018EC38F00150266E26502C24D96E000EAD
:1077B0002D20DA6EDF50BE6E120021EEA8F211EE1F
:1077C0001EF1070EDBC4E3F4E806FCE22A8E2A5021
:1077D000C30B20092A6E2A8C2A922A90000E266E4C
:1077E000010E276E000E286E000E296E1E0E2B6EE7
:1077F000050E2C6E000E33EC3FF01D6E1DA003EF46
:107800003CF005EF3CF00CEF3CF0260E176E050E39
:10781000186E000E69EC3AF0120021EEB0F211EE93
:107820001EF1070EDBC4E3F4E806FCE22A8E2A50C0
:10783000C30B20092A6E2A8C2A922A90000E266EEB
:10784000010E276E000E286E000E296E1E0E2B6E86
:10785000050E2C6E000E33EC3FF01D6E1DA033EFB5
:107860003CF035EF3CF03CEF3CF0260E176E050E79
:10787000186E000E69EC3AF0120003C509F504C554
:107880000AF501C507F502C508F55CEF3CF061009B
:1078900024F4D9F4610028F4DAF4DF500B6E094ABD
:1078A0000A2A61001CF4D9F4610020F4DAF46100C2
:1078B0002CF4DFF4074A082A0506D8A00606052896
:1078C00006E10628D8A467EF3CF069EF3CF047EFEB
:1078D0003CF01200010160A170EF3CF072EF3CF04F
:1078E0007FEF3CF002D87FEF3CF00500FA6E43508A
:1078F000FD6E4450FE6E4550FF6EFA5012000101BD
:107900006CA185EF3CF087EF3CF094EF3CF002D89F
:1079100094EF3CF00500FA6E4050FD6E4150FE6E53
:107920004250FF6EFA50120012000101018F040E46
:107930001DEC3AF00009D8A4A0EF3CF0A2EF3CF017
:10794000BEEF3CF0000E01014C6F380E4D6F000E83
:107950004E6F000E4F6F600E006F870E016F100E9E
:10796000026FB5EC3EF0C5EC3FF0E8EC3CF07CEC8F
:107970003DF088EC3EF0000E1DEC3AF01200000ED7
:10798000246E2450020D590EF324D96E050EF420F6
:10799000DA6EDF50176E21C518F522C519F524508F
:1079A000A8EC35F0236E2350D8B4D9EF3CF0DBEFD0
:1079B0003CF0DDEF3CF0E6EF3CF0242A010E2464BD
:1079C000E4EF3CF0E6EF3CF0C1EF3CF02350120056
:1079D000010E01015C6F040E5D6F600E5E6FA50EFF
:1079E0005F6F010E686F040E696F600E6A6FA50EFF
:1079F0006B6F1A0E0501606F780E616F000E626F7B
:107A00001DEC40F0520E0501606F770E616F000EA5
:107A1000626F16EC40F001011E83B298A28812003A
:107A2000BF0E0501686FFF0E696F66C56AF567C511
:107A30006BF568516A2769516B236B5107E11A0E88
:107A40006A5DD8B026EF3DF028EF3DF02FEF3DF016
:107A5000200E6611666F6751676F33EF3DF066C5A4
:107A600066F567C567F51200000E0501716F000E1F
:107A7000706F47EF3DF06FC562F5636B6DC564F5E0
:107A80006EC565F5D1EC39F00501704B712B705165
:107A90006B25D96E71516C21DA6EDF506F6F6F51AB
:107AA000D8A455EF3DF057EF3DF03BEF3DF012000D
:107AB000000E05018B1B000E8C1B000E8D1B800E13
:107AC0008E1B87C560F588C561F589C562F58AC5D5
:107AD00063F58BC564F58CC565F58DC566F58EC5FA
:107AE00067F5E8EC24F060C587F561C588F562C5E7
:107AF00089F563C58AF51200110E01018C6F010E24
:107B00008D6F000E8E6F000E8F6F9069070E916F54
:107B1000000E926F400E936F810E806F850E946FF2
:107B2000050E956F000E966F000E976F9869070E01
:107B3000996F000E9A6F400E9B6F810E816F12003D
:107B4000D0AAA5EF3DF0A7EF3DF0ABEF3DF04EEC36
:107B500040F0C2EF3DF048EC40F054EC40F0036ED2
:107B60000350486E496A0AEC3FF04A6E000E2EEC54
:107B700040F0010E4B6E340E036EF20EE82EFED76F
:107B8000032EFCD7120060C562F561C563F5CCEF2A
:107B90003DF00501604B612B610080F5D9F4610077
:107BA00084F5DAF4DF50D8A4D8EF3DF0DAEF3DF0F9
:107BB000C9EF3DF005016251605D606F635161592D
:107BC000616F1200026E000E016E040E0260EBEF98
:107BD0003DF0EDEF3DF0FFEF3DF002500C0D500E8B
:107BE000F324D96E010EF420DA6E0101DFAEFBEF53
:107BF0003DF0FDEF3DF0FFEF3DF0010E016E015055
:107C00001200BF0E0501626FFF0E636F60C564F561
:107C100061C565F5625164276351652365510AE1C9
:107C20001A0E645DD8A017EF3EF01AEF3EF0010E79
:107C30001BEF3EF0000E606F616B1200050160519A
:107C4000611162116311D8B428EF3EF02AEF3EF0C3
:107C500032EF3EF0000E601B000E611B000E621B37
:107C6000800E631B60C560F561C561F562C562F594
:107C700063C563F51200535054105510D8B443EF48
:107C80003EF045EF3EF052EF3EF002D852EF3EF0AC
:107C90000500FA6E5350FD6E5450FE6E5550FF6E47
:107CA000FA5012000401179B12005650571058103A
:107CB000D8B45DEF3EF05FEF3EF06CEF3EF002D8DF
:107CC0006CEF3EF00500FA6E5650FD6E5750FE6E9A
:107CD0005850FF6EFA501200040117931200B19E23
:107CE000505051105210D8B478EF3EF07AEF3EF079
:107CF00087EF3EF002D887EF3EF00500FA6E505055
:107D0000FD6E5150FE6E5250FF6EFA50120012007E
:107D1000000E0501606F6051020D5A0EF324D96EFA
:107D2000050EF420DA6E000EDF6E602B010E60652A
:107D30009CEF3EF09EEF3EF08BEF3EF012005F0EA8
:107D400003011B6F790E196F000E186FB19EA18E83
:107D5000BA0E0501606F770E616F000E626F01EC65
:107D600040F0810E03011A6F12000F0E0101046F23
:107D70000F0E056F2E0E066F000E076F030E086FB5
:107D8000030E096F0A0E0A6F000E0B6F0B0E0D6FBC
:107D9000020E0E6F1200A00E0501FE6F060EFF6FA1
:107DA000000E0601986F000E996F9EC69AF69FC648
:107DB0009BF6FE0E9C6F050E9D6F3CEC3BF0120097
:107DC000080E4F24D96EDA6A060EDA22A1C2DFF459
:107DD0004F2A070E4F64EFEF3EF0F1EF3EF0F3EF66
:107DE0003EF0000E4F6E4D2A1200040117A3FBEF68
:107DF0003EF0FDEF3EF0FFEF3EF055EC3EF00401AB
:107E000017AB05EF3FF007EF3FF009EF3FF03BEC1A
:107E10003EF01200B1B60FEF3FF012EF3FF0010E4F
:107E200013EF3FF0000E016E0150D8B41AEF3FF08F
:107E30001CEF3FF01DEF3FF0B19601501200000E15
:107E40000001606F000E616F000E626F000E636FC5
:107E5000000E646F000E656F000E666F000E676F98
:107E6000000E686F1200046E000E036E0450E2EC08
:107E70003DF00009D8B43FEF3FF041EF3FF045EF50
:107E80003FF00450B9EC3FF0036E0350120057EC82
:107E900040F01FEC3FF0B3EC3AF0A1EC3FF076EC91
:107EA0003FF09FEC3EF083EC39F095EC3CF0120093
:107EB0004B50D8B45EEF3FF060EF3FF065EF3FF01E
:107EC000000E4B6E010E66EF3FF0000E12004A509E
:107ED000D8B46DEF3FF06FEF3FF074EF3FF0000E5E
:107EE0004A6E010E75EF3FF0000E1200040E030102
:107EF000266F000E256F000E276FFD0E236F000EFC
:107F0000226FB196A30E246F1200026E02500C0D68
:107F1000530EF324D96E010EF420DA6EDF50016E99
:107F20001F0E0116012812000501606FB2A29BEF1F
:107F30003FF09DEF3FF096EF3FF0610080F5A3F238
:107F40001200600E0001AD6F000EAF6F000EB36F38
:107F5000060EB16F000EB06F1200016E01500C0DD5
:107F6000540EF324D96E010EF420DA6EDF50090BA3
:107F70001200016E01500C0D540EF324D96E010E47
:107F8000F420DA6EDF50010B1200000E0101506F79
:107F9000040E516F600E526FA50E536F1200001148
:107FA0002233445566770011223344556677C088E2
:107FB0001A0EE82EFED700D0C09812000501616F9E
:107FC0000501615194EC3FF0120060C5C1F661C536
:107FD000C2F662C5C3F6120060C5BBF661C5BCF649
:107FE00062C5BDF6120060C5BEF661C5BFF662C5CA
:107FF000C0F6120060C5B8F661C5B9F662C5BAF63A
:10800000120060C550F561C551F562C552F5120008
:1080100060C553F561C554F562C555F5120060C5DC
:1080200056F561C557F562C558F5120060C540F5B3
:1080300061C541F562C542F5120060C543F561C5F1
:1080400044F562C545F5120048C560F549C561F5BE
:10805000120001010239E832070B1200026E0250D1
:1080600033EC40F01200016E610004F422F31200C0
:10807000600088FC01F50150120001010239E8326C
:10808000070B1200010002000100E0EC3EF01200BC
:108090004BEC40F012000301249F120051EC40F021
:1080A00012000301248F120038EC40F01200D69A1F
:0A80B000120012001200120012006C
:020000040020DA
:10000000FF0FFF0FFF0FFF0FFF0FFF0FFF0FFF0F80
:10001000FF0FFF0FFF0FFF0FFF0FFF0FFF0FFF0F70
:020000040030CA
:100000008CFFF7FF9FFFFFFFFFFFFFFFFFFFFFFFDB
:10001000FFFFFFFFFFFFFFFFFFFFFFFFFFFFFFFFF0
:04002000FFFFFFFFE0
:00000001FF
